{"contracts/accessors/SimulateTxAccessor.sol":{"SimulateTxAccessor":{"abi":[{"inputs":[],"stateMutability":"nonpayable","type":"constructor"},{"inputs":[{"internalType":"address","name":"to","type":"address"},{"internalType":"uint256","name":"value","type":"uint256"},{"internalType":"bytes","name":"data","type":"bytes"},{"internalType":"enum Enum.Operation","name":"operation","type":"uint8"}],"name":"simulate","outputs":[{"internalType":"uint256","name":"estimate","type":"uint256"},{"internalType":"bool","name":"success","type":"bool"},{"internalType":"bytes","name":"returnData","type":"bytes"}],"stateMutability":"nonpayable","type":"function"}],"devdoc":{"author":"Richard Meissner - @rmeissner","kind":"dev","methods":{"simulate(address,uint256,bytes,uint8)":{"details":"Executes the specified operation {Call, DelegateCall} and returns operation-specific data.      Has to be called via delegatecall.      This returns the data equal to `abi.encode(uint256(estimate), bool(success), bytes(returnData))`.      Specifically, the returndata will be:      `estimate:uint256 || success:bool || returnData.length:uint256 || returnData:bytes`.","params":{"data":"Data payload.","operation":"Operation type {Call, DelegateCall}.","to":"Destination address .","value":"Native token value."},"returns":{"estimate":"Gas used.","returnData":"Return data.","success":"Success boolean value."}}},"title":"Simulate Transaction Accessor.","version":1},"evm":{"bytecode":{"linkReferences":{},"object":"60a060405234801561001057600080fd5b503073ffffffffffffffffffffffffffffffffffffffff1660808173ffffffffffffffffffffffffffffffffffffffff1660601b8152505060805160601c6103526100656000398061017052506103526000f3fe608060405234801561001057600080fd5b506004361061002b5760003560e01c80631c5fb21114610030575b600080fd5b6100de6004803603608081101561004657600080fd5b81019080803573ffffffffffffffffffffffffffffffffffffffff169060200190929190803590602001909291908035906020019064010000000081111561008d57600080fd5b82018360208201111561009f57600080fd5b803590602001918460018302840111640100000000831117156100c157600080fd5b9091929391929390803560ff169060200190929190505050610169565b60405180848152602001831515815260200180602001828103825283818151815260200191508051906020019080838360005b8381101561012c578082015181840152602081019050610111565b50505050905090810190601f1680156101595780820380516001836020036101000a031916815260200191505b5094505050505060405180910390f35b60008060607f000000000000000000000000000000000000000000000000000000000000000073ffffffffffffffffffffffffffffffffffffffff163073ffffffffffffffffffffffffffffffffffffffff161415610213576040517f08c379a00000000000000000000000000000000000000000000000000000000081526004018080602001828103825260398152602001806102e46039913960400191505060405180910390fd5b60005a9050610269898989898080601f016020809104026020016040519081016040528093929190818152602001838380828437600081840152601f19601f82011690508083019250505050505050885a610297565b92505a8103935060405160203d0181016040523d81523d6000602083013e8092505050955095509592505050565b60006001808111156102a557fe5b8360018111156102b157fe5b14156102ca576000808551602087018986f490506102da565b600080855160208701888a87f190505b9594505050505056fe53696d756c61746554784163636573736f722073686f756c64206f6e6c792062652063616c6c6564207669612064656c656761746563616c6ca2646970667358221220fd430144adb49f3c41232dfb6304536647edd8ba193872e74bf6864e1b781cca64736f6c63430007060033","opcodes":"PUSH1 0xA0 PUSH1 0x40 MSTORE CALLVALUE DUP1 ISZERO PUSH2 0x10 JUMPI PUSH1 0x0 DUP1 REVERT JUMPDEST POP ADDRESS PUSH20 0xFFFFFFFFFFFFFFFFFFFFFFFFFFFFFFFFFFFFFFFF AND PUSH1 0x80 DUP2 PUSH20 0xFFFFFFFFFFFFFFFFFFFFFFFFFFFFFFFFFFFFFFFF AND PUSH1 0x60 SHL DUP2 MSTORE POP POP PUSH1 0x80 MLOAD PUSH1 0x60 SHR PUSH2 0x352 PUSH2 0x65 PUSH1 0x0 CODECOPY DUP1 PUSH2 0x170 MSTORE POP PUSH2 0x352 PUSH1 0x0 RETURN INVALID PUSH1 0x80 PUSH1 0x40 MSTORE CALLVALUE DUP1 ISZERO PUSH2 0x10 JUMPI PUSH1 0x0 DUP1 REVERT JUMPDEST POP PUSH1 0x4 CALLDATASIZE LT PUSH2 0x2B JUMPI PUSH1 0x0 CALLDATALOAD PUSH1 0xE0 SHR DUP1 PUSH4 0x1C5FB211 EQ PUSH2 0x30 JUMPI JUMPDEST PUSH1 0x0 DUP1 REVERT JUMPDEST PUSH2 0xDE PUSH1 0x4 DUP1 CALLDATASIZE SUB PUSH1 0x80 DUP2 LT ISZERO PUSH2 0x46 JUMPI PUSH1 0x0 DUP1 REVERT JUMPDEST DUP2 ADD SWAP1 DUP1 DUP1 CALLDATALOAD PUSH20 0xFFFFFFFFFFFFFFFFFFFFFFFFFFFFFFFFFFFFFFFF AND SWAP1 PUSH1 0x20 ADD SWAP1 SWAP3 SWAP2 SWAP1 DUP1 CALLDATALOAD SWAP1 PUSH1 0x20 ADD SWAP1 SWAP3 SWAP2 SWAP1 DUP1 CALLDATALOAD SWAP1 PUSH1 0x20 ADD SWAP1 PUSH5 0x100000000 DUP2 GT ISZERO PUSH2 0x8D JUMPI PUSH1 0x0 DUP1 REVERT JUMPDEST DUP3 ADD DUP4 PUSH1 0x20 DUP3 ADD GT ISZERO PUSH2 0x9F JUMPI PUSH1 0x0 DUP1 REVERT JUMPDEST DUP1 CALLDATALOAD SWAP1 PUSH1 0x20 ADD SWAP2 DUP5 PUSH1 0x1 DUP4 MUL DUP5 ADD GT PUSH5 0x100000000 DUP4 GT OR ISZERO PUSH2 0xC1 JUMPI PUSH1 0x0 DUP1 REVERT JUMPDEST SWAP1 SWAP2 SWAP3 SWAP4 SWAP2 SWAP3 SWAP4 SWAP1 DUP1 CALLDATALOAD PUSH1 0xFF AND SWAP1 PUSH1 0x20 ADD SWAP1 SWAP3 SWAP2 SWAP1 POP POP POP PUSH2 0x169 JUMP JUMPDEST PUSH1 0x40 MLOAD DUP1 DUP5 DUP2 MSTORE PUSH1 0x20 ADD DUP4 ISZERO ISZERO DUP2 MSTORE PUSH1 0x20 ADD DUP1 PUSH1 0x20 ADD DUP3 DUP2 SUB DUP3 MSTORE DUP4 DUP2 DUP2 MLOAD DUP2 MSTORE PUSH1 0x20 ADD SWAP2 POP DUP1 MLOAD SWAP1 PUSH1 0x20 ADD SWAP1 DUP1 DUP4 DUP4 PUSH1 0x0 JUMPDEST DUP4 DUP2 LT ISZERO PUSH2 0x12C JUMPI DUP1 DUP3 ADD MLOAD DUP2 DUP5 ADD MSTORE PUSH1 0x20 DUP2 ADD SWAP1 POP PUSH2 0x111 JUMP JUMPDEST POP POP POP POP SWAP1 POP SWAP1 DUP2 ADD SWAP1 PUSH1 0x1F AND DUP1 ISZERO PUSH2 0x159 JUMPI DUP1 DUP3 SUB DUP1 MLOAD PUSH1 0x1 DUP4 PUSH1 0x20 SUB PUSH2 0x100 EXP SUB NOT AND DUP2 MSTORE PUSH1 0x20 ADD SWAP2 POP JUMPDEST POP SWAP5 POP POP POP POP POP PUSH1 0x40 MLOAD DUP1 SWAP2 SUB SWAP1 RETURN JUMPDEST PUSH1 0x0 DUP1 PUSH1 0x60 PUSH32 0x0 PUSH20 0xFFFFFFFFFFFFFFFFFFFFFFFFFFFFFFFFFFFFFFFF AND ADDRESS PUSH20 0xFFFFFFFFFFFFFFFFFFFFFFFFFFFFFFFFFFFFFFFF AND EQ ISZERO PUSH2 0x213 JUMPI PUSH1 0x40 MLOAD PUSH32 0x8C379A000000000000000000000000000000000000000000000000000000000 DUP2 MSTORE PUSH1 0x4 ADD DUP1 DUP1 PUSH1 0x20 ADD DUP3 DUP2 SUB DUP3 MSTORE PUSH1 0x39 DUP2 MSTORE PUSH1 0x20 ADD DUP1 PUSH2 0x2E4 PUSH1 0x39 SWAP2 CODECOPY PUSH1 0x40 ADD SWAP2 POP POP PUSH1 0x40 MLOAD DUP1 SWAP2 SUB SWAP1 REVERT JUMPDEST PUSH1 0x0 GAS SWAP1 POP PUSH2 0x269 DUP10 DUP10 DUP10 DUP10 DUP1 DUP1 PUSH1 0x1F ADD PUSH1 0x20 DUP1 SWAP2 DIV MUL PUSH1 0x20 ADD PUSH1 0x40 MLOAD SWAP1 DUP2 ADD PUSH1 0x40 MSTORE DUP1 SWAP4 SWAP3 SWAP2 SWAP1 DUP2 DUP2 MSTORE PUSH1 0x20 ADD DUP4 DUP4 DUP1 DUP3 DUP5 CALLDATACOPY PUSH1 0x0 DUP2 DUP5 ADD MSTORE PUSH1 0x1F NOT PUSH1 0x1F DUP3 ADD AND SWAP1 POP DUP1 DUP4 ADD SWAP3 POP POP POP POP POP POP POP DUP9 GAS PUSH2 0x297 JUMP JUMPDEST SWAP3 POP GAS DUP2 SUB SWAP4 POP PUSH1 0x40 MLOAD PUSH1 0x20 RETURNDATASIZE ADD DUP2 ADD PUSH1 0x40 MSTORE RETURNDATASIZE DUP2 MSTORE RETURNDATASIZE PUSH1 0x0 PUSH1 0x20 DUP4 ADD RETURNDATACOPY DUP1 SWAP3 POP POP POP SWAP6 POP SWAP6 POP SWAP6 SWAP3 POP POP POP JUMP JUMPDEST PUSH1 0x0 PUSH1 0x1 DUP1 DUP2 GT ISZERO PUSH2 0x2A5 JUMPI INVALID JUMPDEST DUP4 PUSH1 0x1 DUP2 GT ISZERO PUSH2 0x2B1 JUMPI INVALID JUMPDEST EQ ISZERO PUSH2 0x2CA JUMPI PUSH1 0x0 DUP1 DUP6 MLOAD PUSH1 0x20 DUP8 ADD DUP10 DUP7 DELEGATECALL SWAP1 POP PUSH2 0x2DA JUMP JUMPDEST PUSH1 0x0 DUP1 DUP6 MLOAD PUSH1 0x20 DUP8 ADD DUP9 DUP11 DUP8 CALL SWAP1 POP JUMPDEST SWAP6 SWAP5 POP POP POP POP POP JUMP INVALID MSTORE8 PUSH10 0x6D756C61746554784163 PUSH4 0x6573736F PUSH19 0x2073686F756C64206F6E6C792062652063616C PUSH13 0x6564207669612064656C656761 PUSH21 0x6563616C6CA2646970667358221220FD430144ADB4 SWAP16 EXTCODECOPY COINBASE 0x23 0x2D 0xFB PUSH4 0x4536647 0xED 0xD8 0xBA NOT CODESIZE PUSH19 0xE74BF6864E1B781CCA64736F6C634300070600 CALLER "},"gasEstimates":{"creation":{"codeDepositCost":"170000","executionCost":"infinite","totalCost":"infinite"},"external":{"simulate(address,uint256,bytes,uint8)":"infinite"}},"methodIdentifiers":{"simulate(address,uint256,bytes,uint8)":"1c5fb211"}},"storageLayout":{"storage":[],"types":null},"userdoc":{"kind":"user","methods":{"simulate(address,uint256,bytes,uint8)":{"notice":"Simulates a Safe transaction and returns the used gas, success boolean and the return data."}},"notice":"Can be used with StorageAccessible to simulate Safe transactions.","version":1}}}}