{"contracts/libraries/Safe130To141Migration.sol":{"Safe130To141Migration":{"abi":[{"inputs":[],"stateMutability":"nonpayable","type":"constructor"},{"anonymous":false,"inputs":[{"indexed":false,"internalType":"address","name":"singleton","type":"address"}],"name":"ChangedMasterCopy","type":"event"},{"inputs":[],"name":"SAFE_141_FALLBACK_HANDLER","outputs":[{"internalType":"address","name":"","type":"address"}],"stateMutability":"view","type":"function"},{"inputs":[],"name":"SAFE_141_SINGLETON","outputs":[{"internalType":"address","name":"","type":"address"}],"stateMutability":"view","type":"function"},{"inputs":[],"name":"SAFE_141_SINGLETON_L2","outputs":[{"internalType":"address","name":"","type":"address"}],"stateMutability":"view","type":"function"},{"inputs":[],"name":"migrate","outputs":[],"stateMutability":"nonpayable","type":"function"},{"inputs":[],"name":"migrateL2","outputs":[],"stateMutability":"nonpayable","type":"function"},{"inputs":[],"name":"migrateL2WithFallbackHandler","outputs":[],"stateMutability":"nonpayable","type":"function"},{"inputs":[],"name":"migrateWithFallbackHandler","outputs":[],"stateMutability":"nonpayable","type":"function"}],"devdoc":{"details":"IMPORTANT: The library is intended to be used with the Safe standard proxy that stores the singleton address      at the storage slot 0. Use at your own risk with custom proxy implementations. The library will block calls      if the address stored at the storage slot 0 is not a contract. The check is implemented in the `checkCurrentSingleton` function.","events":{"ChangedMasterCopy(address)":{"params":{"singleton":"New master copy address"}}},"kind":"dev","methods":{"constructor":{"details":"Initializes the migrationSingleton with the contract's own address."},"migrate()":{"details":"This function should only be called via a delegatecall to perform the upgrade."},"migrateL2()":{"details":"This function should only be called via a delegatecall to perform the upgrade."},"migrateL2WithFallbackHandler()":{"details":"This function should only be called via a delegatecall to perform the upgrade."},"migrateWithFallbackHandler()":{"details":"This function should only be called via a delegatecall to perform the upgrade."}},"title":"Migration Contract for Safe Upgrade","version":1},"evm":{"bytecode":{"linkReferences":{},"object":"608060405234801561001057600080fd5b506100347341675c099f32341bf84bfc5382af534df5c7461a61017e60201b60201c565b610089576040517f08c379a00000000000000000000000000000000000000000000000000000000081526004018080602001828103825260248152602001806106e86024913960400191505060405180910390fd5b6100ac7329fcb43b46531bca003ddc8fcb67ffe91900c76261017e60201b60201c565b610101576040517f08c379a000000000000000000000000000000000000000000000000000000000815260040180806020018281038252602981526020018061070c6029913960400191505060405180910390fd5b61012473fd0732dc9e303f09fcef3a7388ad10a83459ec9961017e60201b60201c565b610179576040517f08c379a000000000000000000000000000000000000000000000000000000000815260040180806020018281038252602b815260200180610735602b913960400191505060405180910390fd5b610191565b600080823b905060008111915050919050565b610548806101a06000396000f3fe608060405234801561001057600080fd5b506004361061007d5760003560e01c80638fd3ab801161005b5780638fd3ab80146100f457806392b501b7146100fe578063ed007fc614610132578063fdd097561461013c5761007d565b80636253390f1461008257806368cb3d94146100b65780636ca63244146100c0575b600080fd5b61008a610146565b604051808273ffffffffffffffffffffffffffffffffffffffff16815260200191505060405180910390f35b6100be61015e565b005b6100c86101fd565b604051808273ffffffffffffffffffffffffffffffffffffffff16815260200191505060405180910390f35b6100fc610215565b005b6101066102e0565b604051808273ffffffffffffffffffffffffffffffffffffffff16815260200191505060405180910390f35b61013a6102f8565b005b610144610397565b005b7341675c099f32341bf84bfc5382af534df5c7461a81565b610166610397565b3073ffffffffffffffffffffffffffffffffffffffff1663f08a032373fd0732dc9e303f09fcef3a7388ad10a83459ec996040518263ffffffff1660e01b8152600401808273ffffffffffffffffffffffffffffffffffffffff168152602001915050600060405180830381600087803b1580156101e357600080fd5b505af11580156101f7573d6000803e3d6000fd5b50505050565b7329fcb43b46531bca003ddc8fcb67ffe91900c76281565b61021d610462565b7341675c099f32341bf84bfc5382af534df5c7461a6000806101000a81548173ffffffffffffffffffffffffffffffffffffffff021916908373ffffffffffffffffffffffffffffffffffffffff1602179055507f75e41bc35ff1bf14d81d1d2f649c0084a0f974f9289c803ec9898eeec4c8d0b860008054906101000a900473ffffffffffffffffffffffffffffffffffffffff16604051808273ffffffffffffffffffffffffffffffffffffffff16815260200191505060405180910390a1565b73fd0732dc9e303f09fcef3a7388ad10a83459ec9981565b610300610215565b3073ffffffffffffffffffffffffffffffffffffffff1663f08a032373fd0732dc9e303f09fcef3a7388ad10a83459ec996040518263ffffffff1660e01b8152600401808273ffffffffffffffffffffffffffffffffffffffff168152602001915050600060405180830381600087803b15801561037d57600080fd5b505af1158015610391573d6000803e3d6000fd5b50505050565b61039f610462565b7329fcb43b46531bca003ddc8fcb67ffe91900c7626000806101000a81548173ffffffffffffffffffffffffffffffffffffffff021916908373ffffffffffffffffffffffffffffffffffffffff1602179055507f75e41bc35ff1bf14d81d1d2f649c0084a0f974f9289c803ec9898eeec4c8d0b860008054906101000a900473ffffffffffffffffffffffffffffffffffffffff16604051808273ffffffffffffffffffffffffffffffffffffffff16815260200191505060405180910390a1565b61048b60008054906101000a900473ffffffffffffffffffffffffffffffffffffffff166104ff565b6104fd576040517f08c379a000000000000000000000000000000000000000000000000000000000815260040180806020018281038252601a8152602001807f556e737570706f727465642070726f787920636f6e747261637400000000000081525060200191505060405180910390fd5b565b600080823b90506000811191505091905056fea2646970667358221220d48e3d0966b9caff984832eacaa093e3eac56372810947c97f70b91114582bf064736f6c634300070600335361666520312e342e312053696e676c65746f6e206973206e6f74206465706c6f7965645361666520312e342e312053696e676c65746f6e20284c3229206973206e6f74206465706c6f7965645361666520312e342e312046616c6c6261636b2048616e646c6572206973206e6f74206465706c6f796564","opcodes":"PUSH1 0x80 PUSH1 0x40 MSTORE CALLVALUE DUP1 ISZERO PUSH2 0x10 JUMPI PUSH1 0x0 DUP1 REVERT JUMPDEST POP PUSH2 0x34 PUSH20 0x41675C099F32341BF84BFC5382AF534DF5C7461A PUSH2 0x17E PUSH1 0x20 SHL PUSH1 0x20 SHR JUMP JUMPDEST PUSH2 0x89 JUMPI PUSH1 0x40 MLOAD PUSH32 0x8C379A000000000000000000000000000000000000000000000000000000000 DUP2 MSTORE PUSH1 0x4 ADD DUP1 DUP1 PUSH1 0x20 ADD DUP3 DUP2 SUB DUP3 MSTORE PUSH1 0x24 DUP2 MSTORE PUSH1 0x20 ADD DUP1 PUSH2 0x6E8 PUSH1 0x24 SWAP2 CODECOPY PUSH1 0x40 ADD SWAP2 POP POP PUSH1 0x40 MLOAD DUP1 SWAP2 SUB SWAP1 REVERT JUMPDEST PUSH2 0xAC PUSH20 0x29FCB43B46531BCA003DDC8FCB67FFE91900C762 PUSH2 0x17E PUSH1 0x20 SHL PUSH1 0x20 SHR JUMP JUMPDEST PUSH2 0x101 JUMPI PUSH1 0x40 MLOAD PUSH32 0x8C379A000000000000000000000000000000000000000000000000000000000 DUP2 MSTORE PUSH1 0x4 ADD DUP1 DUP1 PUSH1 0x20 ADD DUP3 DUP2 SUB DUP3 MSTORE PUSH1 0x29 DUP2 MSTORE PUSH1 0x20 ADD DUP1 PUSH2 0x70C PUSH1 0x29 SWAP2 CODECOPY PUSH1 0x40 ADD SWAP2 POP POP PUSH1 0x40 MLOAD DUP1 SWAP2 SUB SWAP1 REVERT JUMPDEST PUSH2 0x124 PUSH20 0xFD0732DC9E303F09FCEF3A7388AD10A83459EC99 PUSH2 0x17E PUSH1 0x20 SHL PUSH1 0x20 SHR JUMP JUMPDEST PUSH2 0x179 JUMPI PUSH1 0x40 MLOAD PUSH32 0x8C379A000000000000000000000000000000000000000000000000000000000 DUP2 MSTORE PUSH1 0x4 ADD DUP1 DUP1 PUSH1 0x20 ADD DUP3 DUP2 SUB DUP3 MSTORE PUSH1 0x2B DUP2 MSTORE PUSH1 0x20 ADD DUP1 PUSH2 0x735 PUSH1 0x2B SWAP2 CODECOPY PUSH1 0x40 ADD SWAP2 POP POP PUSH1 0x40 MLOAD DUP1 SWAP2 SUB SWAP1 REVERT JUMPDEST PUSH2 0x191 JUMP JUMPDEST PUSH1 0x0 DUP1 DUP3 EXTCODESIZE SWAP1 POP PUSH1 0x0 DUP2 GT SWAP2 POP POP SWAP2 SWAP1 POP JUMP JUMPDEST PUSH2 0x548 DUP1 PUSH2 0x1A0 PUSH1 0x0 CODECOPY PUSH1 0x0 RETURN INVALID PUSH1 0x80 PUSH1 0x40 MSTORE CALLVALUE DUP1 ISZERO PUSH2 0x10 JUMPI PUSH1 0x0 DUP1 REVERT JUMPDEST POP PUSH1 0x4 CALLDATASIZE LT PUSH2 0x7D JUMPI PUSH1 0x0 CALLDATALOAD PUSH1 0xE0 SHR DUP1 PUSH4 0x8FD3AB80 GT PUSH2 0x5B JUMPI DUP1 PUSH4 0x8FD3AB80 EQ PUSH2 0xF4 JUMPI DUP1 PUSH4 0x92B501B7 EQ PUSH2 0xFE JUMPI DUP1 PUSH4 0xED007FC6 EQ PUSH2 0x132 JUMPI DUP1 PUSH4 0xFDD09756 EQ PUSH2 0x13C JUMPI PUSH2 0x7D JUMP JUMPDEST DUP1 PUSH4 0x6253390F EQ PUSH2 0x82 JUMPI DUP1 PUSH4 0x68CB3D94 EQ PUSH2 0xB6 JUMPI DUP1 PUSH4 0x6CA63244 EQ PUSH2 0xC0 JUMPI JUMPDEST PUSH1 0x0 DUP1 REVERT JUMPDEST PUSH2 0x8A PUSH2 0x146 JUMP JUMPDEST PUSH1 0x40 MLOAD DUP1 DUP3 PUSH20 0xFFFFFFFFFFFFFFFFFFFFFFFFFFFFFFFFFFFFFFFF AND DUP2 MSTORE PUSH1 0x20 ADD SWAP2 POP POP PUSH1 0x40 MLOAD DUP1 SWAP2 SUB SWAP1 RETURN JUMPDEST PUSH2 0xBE PUSH2 0x15E JUMP JUMPDEST STOP JUMPDEST PUSH2 0xC8 PUSH2 0x1FD JUMP JUMPDEST PUSH1 0x40 MLOAD DUP1 DUP3 PUSH20 0xFFFFFFFFFFFFFFFFFFFFFFFFFFFFFFFFFFFFFFFF AND DUP2 MSTORE PUSH1 0x20 ADD SWAP2 POP POP PUSH1 0x40 MLOAD DUP1 SWAP2 SUB SWAP1 RETURN JUMPDEST PUSH2 0xFC PUSH2 0x215 JUMP JUMPDEST STOP JUMPDEST PUSH2 0x106 PUSH2 0x2E0 JUMP JUMPDEST PUSH1 0x40 MLOAD DUP1 DUP3 PUSH20 0xFFFFFFFFFFFFFFFFFFFFFFFFFFFFFFFFFFFFFFFF AND DUP2 MSTORE PUSH1 0x20 ADD SWAP2 POP POP PUSH1 0x40 MLOAD DUP1 SWAP2 SUB SWAP1 RETURN JUMPDEST PUSH2 0x13A PUSH2 0x2F8 JUMP JUMPDEST STOP JUMPDEST PUSH2 0x144 PUSH2 0x397 JUMP JUMPDEST STOP JUMPDEST PUSH20 0x41675C099F32341BF84BFC5382AF534DF5C7461A DUP2 JUMP JUMPDEST PUSH2 0x166 PUSH2 0x397 JUMP JUMPDEST ADDRESS PUSH20 0xFFFFFFFFFFFFFFFFFFFFFFFFFFFFFFFFFFFFFFFF AND PUSH4 0xF08A0323 PUSH20 0xFD0732DC9E303F09FCEF3A7388AD10A83459EC99 PUSH1 0x40 MLOAD DUP3 PUSH4 0xFFFFFFFF AND PUSH1 0xE0 SHL DUP2 MSTORE PUSH1 0x4 ADD DUP1 DUP3 PUSH20 0xFFFFFFFFFFFFFFFFFFFFFFFFFFFFFFFFFFFFFFFF AND DUP2 MSTORE PUSH1 0x20 ADD SWAP2 POP POP PUSH1 0x0 PUSH1 0x40 MLOAD DUP1 DUP4 SUB DUP2 PUSH1 0x0 DUP8 DUP1 EXTCODESIZE ISZERO DUP1 ISZERO PUSH2 0x1E3 JUMPI PUSH1 0x0 DUP1 REVERT JUMPDEST POP GAS CALL ISZERO DUP1 ISZERO PUSH2 0x1F7 JUMPI RETURNDATASIZE PUSH1 0x0 DUP1 RETURNDATACOPY RETURNDATASIZE PUSH1 0x0 REVERT JUMPDEST POP POP POP POP JUMP JUMPDEST PUSH20 0x29FCB43B46531BCA003DDC8FCB67FFE91900C762 DUP2 JUMP JUMPDEST PUSH2 0x21D PUSH2 0x462 JUMP JUMPDEST PUSH20 0x41675C099F32341BF84BFC5382AF534DF5C7461A PUSH1 0x0 DUP1 PUSH2 0x100 EXP DUP2 SLOAD DUP2 PUSH20 0xFFFFFFFFFFFFFFFFFFFFFFFFFFFFFFFFFFFFFFFF MUL NOT AND SWAP1 DUP4 PUSH20 0xFFFFFFFFFFFFFFFFFFFFFFFFFFFFFFFFFFFFFFFF AND MUL OR SWAP1 SSTORE POP PUSH32 0x75E41BC35FF1BF14D81D1D2F649C0084A0F974F9289C803EC9898EEEC4C8D0B8 PUSH1 0x0 DUP1 SLOAD SWAP1 PUSH2 0x100 EXP SWAP1 DIV PUSH20 0xFFFFFFFFFFFFFFFFFFFFFFFFFFFFFFFFFFFFFFFF AND PUSH1 0x40 MLOAD DUP1 DUP3 PUSH20 0xFFFFFFFFFFFFFFFFFFFFFFFFFFFFFFFFFFFFFFFF AND DUP2 MSTORE PUSH1 0x20 ADD SWAP2 POP POP PUSH1 0x40 MLOAD DUP1 SWAP2 SUB SWAP1 LOG1 JUMP JUMPDEST PUSH20 0xFD0732DC9E303F09FCEF3A7388AD10A83459EC99 DUP2 JUMP JUMPDEST PUSH2 0x300 PUSH2 0x215 JUMP JUMPDEST ADDRESS PUSH20 0xFFFFFFFFFFFFFFFFFFFFFFFFFFFFFFFFFFFFFFFF AND PUSH4 0xF08A0323 PUSH20 0xFD0732DC9E303F09FCEF3A7388AD10A83459EC99 PUSH1 0x40 MLOAD DUP3 PUSH4 0xFFFFFFFF AND PUSH1 0xE0 SHL DUP2 MSTORE PUSH1 0x4 ADD DUP1 DUP3 PUSH20 0xFFFFFFFFFFFFFFFFFFFFFFFFFFFFFFFFFFFFFFFF AND DUP2 MSTORE PUSH1 0x20 ADD SWAP2 POP POP PUSH1 0x0 PUSH1 0x40 MLOAD DUP1 DUP4 SUB DUP2 PUSH1 0x0 DUP8 DUP1 EXTCODESIZE ISZERO DUP1 ISZERO PUSH2 0x37D JUMPI PUSH1 0x0 DUP1 REVERT JUMPDEST POP GAS CALL ISZERO DUP1 ISZERO PUSH2 0x391 JUMPI RETURNDATASIZE PUSH1 0x0 DUP1 RETURNDATACOPY RETURNDATASIZE PUSH1 0x0 REVERT JUMPDEST POP POP POP POP JUMP JUMPDEST PUSH2 0x39F PUSH2 0x462 JUMP JUMPDEST PUSH20 0x29FCB43B46531BCA003DDC8FCB67FFE91900C762 PUSH1 0x0 DUP1 PUSH2 0x100 EXP DUP2 SLOAD DUP2 PUSH20 0xFFFFFFFFFFFFFFFFFFFFFFFFFFFFFFFFFFFFFFFF MUL NOT AND SWAP1 DUP4 PUSH20 0xFFFFFFFFFFFFFFFFFFFFFFFFFFFFFFFFFFFFFFFF AND MUL OR SWAP1 SSTORE POP PUSH32 0x75E41BC35FF1BF14D81D1D2F649C0084A0F974F9289C803EC9898EEEC4C8D0B8 PUSH1 0x0 DUP1 SLOAD SWAP1 PUSH2 0x100 EXP SWAP1 DIV PUSH20 0xFFFFFFFFFFFFFFFFFFFFFFFFFFFFFFFFFFFFFFFF AND PUSH1 0x40 MLOAD DUP1 DUP3 PUSH20 0xFFFFFFFFFFFFFFFFFFFFFFFFFFFFFFFFFFFFFFFF AND DUP2 MSTORE PUSH1 0x20 ADD SWAP2 POP POP PUSH1 0x40 MLOAD DUP1 SWAP2 SUB SWAP1 LOG1 JUMP JUMPDEST PUSH2 0x48B PUSH1 0x0 DUP1 SLOAD SWAP1 PUSH2 0x100 EXP SWAP1 DIV PUSH20 0xFFFFFFFFFFFFFFFFFFFFFFFFFFFFFFFFFFFFFFFF AND PUSH2 0x4FF JUMP JUMPDEST PUSH2 0x4FD JUMPI PUSH1 0x40 MLOAD PUSH32 0x8C379A000000000000000000000000000000000000000000000000000000000 DUP2 MSTORE PUSH1 0x4 ADD DUP1 DUP1 PUSH1 0x20 ADD DUP3 DUP2 SUB DUP3 MSTORE PUSH1 0x1A DUP2 MSTORE PUSH1 0x20 ADD DUP1 PUSH32 0x556E737570706F727465642070726F787920636F6E7472616374000000000000 DUP2 MSTORE POP PUSH1 0x20 ADD SWAP2 POP POP PUSH1 0x40 MLOAD DUP1 SWAP2 SUB SWAP1 REVERT JUMPDEST JUMP JUMPDEST PUSH1 0x0 DUP1 DUP3 EXTCODESIZE SWAP1 POP PUSH1 0x0 DUP2 GT SWAP2 POP POP SWAP2 SWAP1 POP JUMP INVALID LOG2 PUSH5 0x6970667358 0x22 SLT KECCAK256 0xD4 DUP15 RETURNDATASIZE MULMOD PUSH7 0xB9CAFF984832EA 0xCA LOG0 SWAP4 0xE3 0xEA 0xC5 PUSH4 0x72810947 0xC9 PUSH32 0x70B91114582BF064736F6C634300070600335361666520312E342E312053696E PUSH8 0x6C65746F6E206973 KECCAK256 PUSH15 0x6F74206465706C6F79656453616665 KECCAK256 BALANCE 0x2E CALLVALUE 0x2E BALANCE KECCAK256 MSTORE8 PUSH10 0x6E676C65746F6E20284C ORIGIN 0x29 KECCAK256 PUSH10 0x73206E6F74206465706C PUSH16 0x7965645361666520312E342E31204661 PUSH13 0x6C6261636B2048616E646C6572 KECCAK256 PUSH10 0x73206E6F74206465706C PUSH16 0x79656400000000000000000000000000 "},"gasEstimates":{"creation":{"codeDepositCost":"270400","executionCost":"infinite","totalCost":"infinite"},"external":{"SAFE_141_FALLBACK_HANDLER()":"233","SAFE_141_SINGLETON()":"212","SAFE_141_SINGLETON_L2()":"256","migrate()":"24553","migrateL2()":"24619","migrateL2WithFallbackHandler()":"infinite","migrateWithFallbackHandler()":"infinite"},"internal":{"checkCurrentSingleton()":"infinite","isContract(address)":"747"}},"methodIdentifiers":{"SAFE_141_FALLBACK_HANDLER()":"92b501b7","SAFE_141_SINGLETON()":"6253390f","SAFE_141_SINGLETON_L2()":"6ca63244","migrate()":"8fd3ab80","migrateL2()":"fdd09756","migrateL2WithFallbackHandler()":"68cb3d94","migrateWithFallbackHandler()":"ed007fc6"}},"storageLayout":{"storage":[{"astId":4784,"contract":"contracts/libraries/Safe130To141Migration.sol:Safe130To141Migration","label":"singleton","offset":0,"slot":"0","type":"t_address"},{"astId":4788,"contract":"contracts/libraries/Safe130To141Migration.sol:Safe130To141Migration","label":"modules","offset":0,"slot":"1","type":"t_mapping(t_address,t_address)"},{"astId":4792,"contract":"contracts/libraries/Safe130To141Migration.sol:Safe130To141Migration","label":"owners","offset":0,"slot":"2","type":"t_mapping(t_address,t_address)"},{"astId":4794,"contract":"contracts/libraries/Safe130To141Migration.sol:Safe130To141Migration","label":"ownerCount","offset":0,"slot":"3","type":"t_uint256"},{"astId":4796,"contract":"contracts/libraries/Safe130To141Migration.sol:Safe130To141Migration","label":"threshold","offset":0,"slot":"4","type":"t_uint256"},{"astId":4798,"contract":"contracts/libraries/Safe130To141Migration.sol:Safe130To141Migration","label":"nonce","offset":0,"slot":"5","type":"t_uint256"},{"astId":4800,"contract":"contracts/libraries/Safe130To141Migration.sol:Safe130To141Migration","label":"_deprecatedDomainSeparator","offset":0,"slot":"6","type":"t_bytes32"},{"astId":4804,"contract":"contracts/libraries/Safe130To141Migration.sol:Safe130To141Migration","label":"signedMessages","offset":0,"slot":"7","type":"t_mapping(t_bytes32,t_uint256)"},{"astId":4810,"contract":"contracts/libraries/Safe130To141Migration.sol:Safe130To141Migration","label":"approvedHashes","offset":0,"slot":"8","type":"t_mapping(t_address,t_mapping(t_bytes32,t_uint256))"}],"types":{"t_address":{"encoding":"inplace","label":"address","numberOfBytes":"20"},"t_bytes32":{"encoding":"inplace","label":"bytes32","numberOfBytes":"32"},"t_mapping(t_address,t_address)":{"encoding":"mapping","key":"t_address","label":"mapping(address => address)","numberOfBytes":"32","value":"t_address"},"t_mapping(t_address,t_mapping(t_bytes32,t_uint256))":{"encoding":"mapping","key":"t_address","label":"mapping(address => mapping(bytes32 => uint256))","numberOfBytes":"32","value":"t_mapping(t_bytes32,t_uint256)"},"t_mapping(t_bytes32,t_uint256)":{"encoding":"mapping","key":"t_bytes32","label":"mapping(bytes32 => uint256)","numberOfBytes":"32","value":"t_uint256"},"t_uint256":{"encoding":"inplace","label":"uint256","numberOfBytes":"32"}}},"userdoc":{"events":{"ChangedMasterCopy(address)":{"notice":"Event indicating a change of master copy address."}},"kind":"user","methods":{"constructor":{"notice":"Constructor"},"migrate()":{"notice":"Migrate to Safe 1.4.1 Singleton (L1) at `SAFE_141_SINGLETON`"},"migrateL2()":{"notice":"Migrate to Safe 1.4.1 Singleton (L2) at `SAFE_141_SINGLETON_L2`"},"migrateL2WithFallbackHandler()":{"notice":"Migrate to Safe 1.4.1 Singleton (L2) at `SAFE_141_SINGLETON_L2` and sets the fallback handler to `SAFE_141_FALLBACK_HANDLER`"},"migrateWithFallbackHandler()":{"notice":"Migrate to Safe 1.4.1 Singleton (L1) at `SAFE_141_SINGLETON` and sets the fallback handler to `SAFE_141_FALLBACK_HANDLER`"}},"notice":"This contract facilitates the migration of a Safe contract from version 1.3.0 to 1.4.1.         The older versions should use built-in upgrade methods.","version":1}}}}