{"contracts/examples/guards/DebugTransactionGuard.sol":{"DebugTransactionGuard":{"abi":[{"anonymous":false,"inputs":[{"indexed":true,"internalType":"address","name":"safe","type":"address"},{"indexed":true,"internalType":"bytes32","name":"txHash","type":"bytes32"},{"indexed":true,"internalType":"uint256","name":"nonce","type":"uint256"},{"indexed":false,"internalType":"bool","name":"success","type":"bool"}],"name":"GasUsage","type":"event"},{"anonymous":false,"inputs":[{"indexed":true,"internalType":"bytes32","name":"txHash","type":"bytes32"},{"indexed":false,"internalType":"address","name":"to","type":"address"},{"indexed":false,"internalType":"uint256","name":"value","type":"uint256"},{"indexed":false,"internalType":"bytes","name":"data","type":"bytes"},{"indexed":false,"internalType":"enum Enum.Operation","name":"operation","type":"uint8"},{"indexed":false,"internalType":"address","name":"module","type":"address"}],"name":"ModuleTransasctionDetails","type":"event"},{"anonymous":false,"inputs":[{"indexed":true,"internalType":"address","name":"safe","type":"address"},{"indexed":true,"internalType":"bytes32","name":"txHash","type":"bytes32"},{"indexed":false,"internalType":"address","name":"to","type":"address"},{"indexed":false,"internalType":"uint256","name":"value","type":"uint256"},{"indexed":false,"internalType":"bytes","name":"data","type":"bytes"},{"indexed":false,"internalType":"enum Enum.Operation","name":"operation","type":"uint8"},{"indexed":false,"internalType":"uint256","name":"safeTxGas","type":"uint256"},{"indexed":false,"internalType":"bool","name":"usesRefund","type":"bool"},{"indexed":false,"internalType":"uint256","name":"nonce","type":"uint256"},{"indexed":false,"internalType":"bytes","name":"signatures","type":"bytes"},{"indexed":false,"internalType":"address","name":"executor","type":"address"}],"name":"TransactionDetails","type":"event"},{"stateMutability":"nonpayable","type":"fallback"},{"inputs":[{"internalType":"bytes32","name":"txHash","type":"bytes32"},{"internalType":"bool","name":"success","type":"bool"}],"name":"checkAfterExecution","outputs":[],"stateMutability":"nonpayable","type":"function"},{"inputs":[{"internalType":"address","name":"to","type":"address"},{"internalType":"uint256","name":"value","type":"uint256"},{"internalType":"bytes","name":"data","type":"bytes"},{"internalType":"enum Enum.Operation","name":"operation","type":"uint8"},{"internalType":"address","name":"module","type":"address"}],"name":"checkModuleTransaction","outputs":[{"internalType":"bytes32","name":"moduleTxHash","type":"bytes32"}],"stateMutability":"nonpayable","type":"function"},{"inputs":[{"internalType":"address","name":"to","type":"address"},{"internalType":"uint256","name":"value","type":"uint256"},{"internalType":"bytes","name":"data","type":"bytes"},{"internalType":"enum Enum.Operation","name":"operation","type":"uint8"},{"internalType":"uint256","name":"safeTxGas","type":"uint256"},{"internalType":"uint256","name":"baseGas","type":"uint256"},{"internalType":"uint256","name":"gasPrice","type":"uint256"},{"internalType":"address","name":"gasToken","type":"address"},{"internalType":"address payable","name":"refundReceiver","type":"address"},{"internalType":"bytes","name":"signatures","type":"bytes"},{"internalType":"address","name":"executor","type":"address"}],"name":"checkTransaction","outputs":[],"stateMutability":"nonpayable","type":"function"},{"inputs":[{"internalType":"bytes4","name":"interfaceId","type":"bytes4"}],"name":"supportsInterface","outputs":[{"internalType":"bool","name":"","type":"bool"}],"stateMutability":"view","type":"function"},{"inputs":[{"internalType":"bytes32","name":"","type":"bytes32"}],"name":"txNonces","outputs":[{"internalType":"uint256","name":"","type":"uint256"}],"stateMutability":"view","type":"function"}],"devdoc":{"author":"Richard Meissner - @rmeissner","details":"This guard is only meant as a development tool and example","kind":"dev","methods":{"checkAfterExecution(bytes32,bool)":{"params":{"success":"True if the transaction was successful.","txHash":"Hash of the executed transaction."}},"checkModuleTransaction(address,uint256,bytes,uint8,address)":{"params":{"data":"Data payload of Safe transaction.","module":"Account executing the transaction.","operation":"Operation type of Safe transaction.","to":"Destination address of Safe transaction.","value":"Ether value of Safe transaction."},"returns":{"moduleTxHash":"Hash of the module transaction."}},"checkTransaction(address,uint256,bytes,uint8,uint256,uint256,uint256,address,address,bytes,address)":{"params":{"baseGas":"Gas costs that are independent of the transaction execution (e.g. base transaction fee, signature check, payment of the refund)","data":"Data payload of Safe transaction.","executor":"Account executing the transaction.","gasPrice":"Gas price that should be used for the payment calculation.","gasToken":"Token address (or 0 if ETH) that is used for the payment.","operation":"Operation type of Safe transaction.","refundReceiver":"Address of receiver of gas payment (or 0 if tx.origin).","safeTxGas":"Gas that should be used for the Safe transaction.","signatures":"Signature data that should be verified. Can be packed ECDSA signature ({bytes32 r}{bytes32 s}{uint8 v}), contract signature (EIP-1271) or approved hash.","to":"Destination address of Safe transaction.","value":"Ether value of Safe transaction."}},"supportsInterface(bytes4)":{"details":"Returns true if this contract implements the interface defined by `interfaceId`. See the corresponding EIP section https://eips.ethereum.org/EIPS/eip-165#how-interfaces-are-identified to learn more about how these ids are created. This function call must use less than 30 000 gas."}},"title":"Debug Transaction Guard - Emits transaction events with extended information.","version":1},"evm":{"bytecode":{"linkReferences":{},"object":"608060405234801561001057600080fd5b50610c2d806100206000396000f3fe608060405234801561001057600080fd5b506004361061005b5760003560e01c806301ffc9a71461005e578063728c2972146100c157806375f0bb52146101e757806393271368146103ef578063ddbdba63146104295761005c565b5b005b6100a96004803603602081101561007457600080fd5b8101908080357bffffffffffffffffffffffffffffffffffffffffffffffffffffffff1916906020019092919050505061046b565b60405180821515815260200191505060405180910390f35b6101d1600480360360a08110156100d757600080fd5b81019080803573ffffffffffffffffffffffffffffffffffffffff169060200190929190803590602001909291908035906020019064010000000081111561011e57600080fd5b82018360208201111561013057600080fd5b8035906020019184600183028401116401000000008311171561015257600080fd5b91908080601f016020809104026020016040519081016040528093929190818152602001838380828437600081840152601f19601f820116905080830192505050505050509192919290803560ff169060200190929190803573ffffffffffffffffffffffffffffffffffffffff16906020019092919050505061053d565b6040518082815260200191505060405180910390f35b6103ed60048036036101608110156101fe57600080fd5b81019080803573ffffffffffffffffffffffffffffffffffffffff169060200190929190803590602001909291908035906020019064010000000081111561024557600080fd5b82018360208201111561025757600080fd5b8035906020019184600183028401116401000000008311171561027957600080fd5b91908080601f016020809104026020016040519081016040528093929190818152602001838380828437600081840152601f19601f820116905080830192505050505050509192919290803560ff169060200190929190803590602001909291908035906020019092919080359060200190929190803573ffffffffffffffffffffffffffffffffffffffff169060200190929190803573ffffffffffffffffffffffffffffffffffffffff1690602001909291908035906020019064010000000081111561034757600080fd5b82018360208201111561035957600080fd5b8035906020019184600183028401116401000000008311171561037b57600080fd5b91908080601f016020809104026020016040519081016040528093929190818152602001838380828437600081840152601f19601f820116905080830192505050505050509192919290803573ffffffffffffffffffffffffffffffffffffffff169060200190929190505050610710565b005b6104276004803603604081101561040557600080fd5b8101908080359060200190929190803515159060200190929190505050610ae2565b005b6104556004803603602081101561043f57600080fd5b8101908080359060200190929190505050610bdf565b6040518082815260200191505060405180910390f35b60007f945b8148000000000000000000000000000000000000000000000000000000007bffffffffffffffffffffffffffffffffffffffffffffffffffffffff1916827bffffffffffffffffffffffffffffffffffffffffffffffffffffffff1916148061053657507f01ffc9a7000000000000000000000000000000000000000000000000000000007bffffffffffffffffffffffffffffffffffffffffffffffffffffffff1916827bffffffffffffffffffffffffffffffffffffffffffffffffffffffff1916145b9050919050565b60008585858585604051602001808673ffffffffffffffffffffffffffffffffffffffff1660601b815260140185815260200184805190602001908083835b6020831061059f578051825260208201915060208101905060208303925061057c565b6001836020036101000a0380198251168184511680821785525050505050509050018360018111156105cd57fe5b60f81b81526001018273ffffffffffffffffffffffffffffffffffffffff1660601b815260140195505050505050604051602081830303815290604052805190602001209050807f3c6faeabb77e6f2d036d756deaa3888179c615795ab4b4329874c29b03a732c78787878787604051808673ffffffffffffffffffffffffffffffffffffffff1681526020018581526020018060200184600181111561067057fe5b81526020018373ffffffffffffffffffffffffffffffffffffffff168152602001828103825285818151815260200191508051906020019080838360005b838110156106c95780820151818401526020810190506106ae565b50505050905090810190601f1680156106f65780820380516001836020036101000a031916815260200191505b50965050505050505060405180910390a295945050505050565b600080600033905060018173ffffffffffffffffffffffffffffffffffffffff1663affed0e06040518163ffffffff1660e01b815260040160206040518083038186803b15801561076057600080fd5b505afa158015610774573d6000803e3d6000fd5b505050506040513d602081101561078a57600080fd5b81019080805190602001909291905050500392508073ffffffffffffffffffffffffffffffffffffffff1663d8d11f788f8f8f8f8f8f8f8f8f8d6040518b63ffffffff1660e01b8152600401808b73ffffffffffffffffffffffffffffffffffffffff1681526020018a81526020018060200189600181111561080957fe5b81526020018881526020018781526020018681526020018573ffffffffffffffffffffffffffffffffffffffff1681526020018473ffffffffffffffffffffffffffffffffffffffff16815260200183815260200182810382528a818151815260200191508051906020019080838360005b8381101561089657808201518184015260208101905061087b565b50505050905090810190601f1680156108c35780820380516001836020036101000a031916815260200191505b509b50505050505050505050505060206040518083038186803b1580156108e957600080fd5b505afa1580156108fd573d6000803e3d6000fd5b505050506040513d602081101561091357600080fd5b8101908080519060200190929190505050915050803373ffffffffffffffffffffffffffffffffffffffff167fa65fef32cd19a6639a4bf7a6d196f132c151e4f0bbd2706f7f831b3a778e1ac08f8f8f8f8f60008f118a8d8d604051808a73ffffffffffffffffffffffffffffffffffffffff168152602001898152602001806020018860018111156109a257fe5b81526020018781526020018615158152602001858152602001806020018473ffffffffffffffffffffffffffffffffffffffff16815260200183810383528a818151815260200191508051906020019080838360005b83811015610a135780820151818401526020810190506109f8565b50505050905090810190601f168015610a405780820380516001836020036101000a031916815260200191505b50838103825285818151815260200191508051906020019080838360005b83811015610a79578082015181840152602081019050610a5e565b50505050905090810190601f168015610aa65780820380516001836020036101000a031916815260200191505b509b50505050505050505050505060405180910390a3816000808381526020019081526020016000208190555050505050505050505050505050565b60008060008481526020019081526020016000205490506000811415610b70576040517f08c379a00000000000000000000000000000000000000000000000000000000081526004018080602001828103825260138152602001807f436f756c64206e6f7420676574206e6f6e63650000000000000000000000000081525060200191505060405180910390fd5b60008060008581526020019081526020016000208190555080833373ffffffffffffffffffffffffffffffffffffffff167f0dcc0fb56a30b6fe6b188f45b47369bc7f3c928a9748e245a79fc3f54ddd05688560405180821515815260200191505060405180910390a4505050565b6000602052806000526040600020600091509050548156fea2646970667358221220cd3980ea55898bdbacf99e3979878dec432bfaf1dfb8d86b046a5ac64e93b19f64736f6c63430007060033","opcodes":"PUSH1 0x80 PUSH1 0x40 MSTORE CALLVALUE DUP1 ISZERO PUSH2 0x10 JUMPI PUSH1 0x0 DUP1 REVERT JUMPDEST POP PUSH2 0xC2D DUP1 PUSH2 0x20 PUSH1 0x0 CODECOPY PUSH1 0x0 RETURN INVALID PUSH1 0x80 PUSH1 0x40 MSTORE CALLVALUE DUP1 ISZERO PUSH2 0x10 JUMPI PUSH1 0x0 DUP1 REVERT JUMPDEST POP PUSH1 0x4 CALLDATASIZE LT PUSH2 0x5B JUMPI PUSH1 0x0 CALLDATALOAD PUSH1 0xE0 SHR DUP1 PUSH4 0x1FFC9A7 EQ PUSH2 0x5E JUMPI DUP1 PUSH4 0x728C2972 EQ PUSH2 0xC1 JUMPI DUP1 PUSH4 0x75F0BB52 EQ PUSH2 0x1E7 JUMPI DUP1 PUSH4 0x93271368 EQ PUSH2 0x3EF JUMPI DUP1 PUSH4 0xDDBDBA63 EQ PUSH2 0x429 JUMPI PUSH2 0x5C JUMP JUMPDEST JUMPDEST STOP JUMPDEST PUSH2 0xA9 PUSH1 0x4 DUP1 CALLDATASIZE SUB PUSH1 0x20 DUP2 LT ISZERO PUSH2 0x74 JUMPI PUSH1 0x0 DUP1 REVERT JUMPDEST DUP2 ADD SWAP1 DUP1 DUP1 CALLDATALOAD PUSH28 0xFFFFFFFFFFFFFFFFFFFFFFFFFFFFFFFFFFFFFFFFFFFFFFFFFFFFFFFF NOT AND SWAP1 PUSH1 0x20 ADD SWAP1 SWAP3 SWAP2 SWAP1 POP POP POP PUSH2 0x46B JUMP JUMPDEST PUSH1 0x40 MLOAD DUP1 DUP3 ISZERO ISZERO DUP2 MSTORE PUSH1 0x20 ADD SWAP2 POP POP PUSH1 0x40 MLOAD DUP1 SWAP2 SUB SWAP1 RETURN JUMPDEST PUSH2 0x1D1 PUSH1 0x4 DUP1 CALLDATASIZE SUB PUSH1 0xA0 DUP2 LT ISZERO PUSH2 0xD7 JUMPI PUSH1 0x0 DUP1 REVERT JUMPDEST DUP2 ADD SWAP1 DUP1 DUP1 CALLDATALOAD PUSH20 0xFFFFFFFFFFFFFFFFFFFFFFFFFFFFFFFFFFFFFFFF AND SWAP1 PUSH1 0x20 ADD SWAP1 SWAP3 SWAP2 SWAP1 DUP1 CALLDATALOAD SWAP1 PUSH1 0x20 ADD SWAP1 SWAP3 SWAP2 SWAP1 DUP1 CALLDATALOAD SWAP1 PUSH1 0x20 ADD SWAP1 PUSH5 0x100000000 DUP2 GT ISZERO PUSH2 0x11E JUMPI PUSH1 0x0 DUP1 REVERT JUMPDEST DUP3 ADD DUP4 PUSH1 0x20 DUP3 ADD GT ISZERO PUSH2 0x130 JUMPI PUSH1 0x0 DUP1 REVERT JUMPDEST DUP1 CALLDATALOAD SWAP1 PUSH1 0x20 ADD SWAP2 DUP5 PUSH1 0x1 DUP4 MUL DUP5 ADD GT PUSH5 0x100000000 DUP4 GT OR ISZERO PUSH2 0x152 JUMPI PUSH1 0x0 DUP1 REVERT JUMPDEST SWAP2 SWAP1 DUP1 DUP1 PUSH1 0x1F ADD PUSH1 0x20 DUP1 SWAP2 DIV MUL PUSH1 0x20 ADD PUSH1 0x40 MLOAD SWAP1 DUP2 ADD PUSH1 0x40 MSTORE DUP1 SWAP4 SWAP3 SWAP2 SWAP1 DUP2 DUP2 MSTORE PUSH1 0x20 ADD DUP4 DUP4 DUP1 DUP3 DUP5 CALLDATACOPY PUSH1 0x0 DUP2 DUP5 ADD MSTORE PUSH1 0x1F NOT PUSH1 0x1F DUP3 ADD AND SWAP1 POP DUP1 DUP4 ADD SWAP3 POP POP POP POP POP POP POP SWAP2 SWAP3 SWAP2 SWAP3 SWAP1 DUP1 CALLDATALOAD PUSH1 0xFF AND SWAP1 PUSH1 0x20 ADD SWAP1 SWAP3 SWAP2 SWAP1 DUP1 CALLDATALOAD PUSH20 0xFFFFFFFFFFFFFFFFFFFFFFFFFFFFFFFFFFFFFFFF AND SWAP1 PUSH1 0x20 ADD SWAP1 SWAP3 SWAP2 SWAP1 POP POP POP PUSH2 0x53D JUMP JUMPDEST PUSH1 0x40 MLOAD DUP1 DUP3 DUP2 MSTORE PUSH1 0x20 ADD SWAP2 POP POP PUSH1 0x40 MLOAD DUP1 SWAP2 SUB SWAP1 RETURN JUMPDEST PUSH2 0x3ED PUSH1 0x4 DUP1 CALLDATASIZE SUB PUSH2 0x160 DUP2 LT ISZERO PUSH2 0x1FE JUMPI PUSH1 0x0 DUP1 REVERT JUMPDEST DUP2 ADD SWAP1 DUP1 DUP1 CALLDATALOAD PUSH20 0xFFFFFFFFFFFFFFFFFFFFFFFFFFFFFFFFFFFFFFFF AND SWAP1 PUSH1 0x20 ADD SWAP1 SWAP3 SWAP2 SWAP1 DUP1 CALLDATALOAD SWAP1 PUSH1 0x20 ADD SWAP1 SWAP3 SWAP2 SWAP1 DUP1 CALLDATALOAD SWAP1 PUSH1 0x20 ADD SWAP1 PUSH5 0x100000000 DUP2 GT ISZERO PUSH2 0x245 JUMPI PUSH1 0x0 DUP1 REVERT JUMPDEST DUP3 ADD DUP4 PUSH1 0x20 DUP3 ADD GT ISZERO PUSH2 0x257 JUMPI PUSH1 0x0 DUP1 REVERT JUMPDEST DUP1 CALLDATALOAD SWAP1 PUSH1 0x20 ADD SWAP2 DUP5 PUSH1 0x1 DUP4 MUL DUP5 ADD GT PUSH5 0x100000000 DUP4 GT OR ISZERO PUSH2 0x279 JUMPI PUSH1 0x0 DUP1 REVERT JUMPDEST SWAP2 SWAP1 DUP1 DUP1 PUSH1 0x1F ADD PUSH1 0x20 DUP1 SWAP2 DIV MUL PUSH1 0x20 ADD PUSH1 0x40 MLOAD SWAP1 DUP2 ADD PUSH1 0x40 MSTORE DUP1 SWAP4 SWAP3 SWAP2 SWAP1 DUP2 DUP2 MSTORE PUSH1 0x20 ADD DUP4 DUP4 DUP1 DUP3 DUP5 CALLDATACOPY PUSH1 0x0 DUP2 DUP5 ADD MSTORE PUSH1 0x1F NOT PUSH1 0x1F DUP3 ADD AND SWAP1 POP DUP1 DUP4 ADD SWAP3 POP POP POP POP POP POP POP SWAP2 SWAP3 SWAP2 SWAP3 SWAP1 DUP1 CALLDATALOAD PUSH1 0xFF AND SWAP1 PUSH1 0x20 ADD SWAP1 SWAP3 SWAP2 SWAP1 DUP1 CALLDATALOAD SWAP1 PUSH1 0x20 ADD SWAP1 SWAP3 SWAP2 SWAP1 DUP1 CALLDATALOAD SWAP1 PUSH1 0x20 ADD SWAP1 SWAP3 SWAP2 SWAP1 DUP1 CALLDATALOAD SWAP1 PUSH1 0x20 ADD SWAP1 SWAP3 SWAP2 SWAP1 DUP1 CALLDATALOAD PUSH20 0xFFFFFFFFFFFFFFFFFFFFFFFFFFFFFFFFFFFFFFFF AND SWAP1 PUSH1 0x20 ADD SWAP1 SWAP3 SWAP2 SWAP1 DUP1 CALLDATALOAD PUSH20 0xFFFFFFFFFFFFFFFFFFFFFFFFFFFFFFFFFFFFFFFF AND SWAP1 PUSH1 0x20 ADD SWAP1 SWAP3 SWAP2 SWAP1 DUP1 CALLDATALOAD SWAP1 PUSH1 0x20 ADD SWAP1 PUSH5 0x100000000 DUP2 GT ISZERO PUSH2 0x347 JUMPI PUSH1 0x0 DUP1 REVERT JUMPDEST DUP3 ADD DUP4 PUSH1 0x20 DUP3 ADD GT ISZERO PUSH2 0x359 JUMPI PUSH1 0x0 DUP1 REVERT JUMPDEST DUP1 CALLDATALOAD SWAP1 PUSH1 0x20 ADD SWAP2 DUP5 PUSH1 0x1 DUP4 MUL DUP5 ADD GT PUSH5 0x100000000 DUP4 GT OR ISZERO PUSH2 0x37B JUMPI PUSH1 0x0 DUP1 REVERT JUMPDEST SWAP2 SWAP1 DUP1 DUP1 PUSH1 0x1F ADD PUSH1 0x20 DUP1 SWAP2 DIV MUL PUSH1 0x20 ADD PUSH1 0x40 MLOAD SWAP1 DUP2 ADD PUSH1 0x40 MSTORE DUP1 SWAP4 SWAP3 SWAP2 SWAP1 DUP2 DUP2 MSTORE PUSH1 0x20 ADD DUP4 DUP4 DUP1 DUP3 DUP5 CALLDATACOPY PUSH1 0x0 DUP2 DUP5 ADD MSTORE PUSH1 0x1F NOT PUSH1 0x1F DUP3 ADD AND SWAP1 POP DUP1 DUP4 ADD SWAP3 POP POP POP POP POP POP POP SWAP2 SWAP3 SWAP2 SWAP3 SWAP1 DUP1 CALLDATALOAD PUSH20 0xFFFFFFFFFFFFFFFFFFFFFFFFFFFFFFFFFFFFFFFF AND SWAP1 PUSH1 0x20 ADD SWAP1 SWAP3 SWAP2 SWAP1 POP POP POP PUSH2 0x710 JUMP JUMPDEST STOP JUMPDEST PUSH2 0x427 PUSH1 0x4 DUP1 CALLDATASIZE SUB PUSH1 0x40 DUP2 LT ISZERO PUSH2 0x405 JUMPI PUSH1 0x0 DUP1 REVERT JUMPDEST DUP2 ADD SWAP1 DUP1 DUP1 CALLDATALOAD SWAP1 PUSH1 0x20 ADD SWAP1 SWAP3 SWAP2 SWAP1 DUP1 CALLDATALOAD ISZERO ISZERO SWAP1 PUSH1 0x20 ADD SWAP1 SWAP3 SWAP2 SWAP1 POP POP POP PUSH2 0xAE2 JUMP JUMPDEST STOP JUMPDEST PUSH2 0x455 PUSH1 0x4 DUP1 CALLDATASIZE SUB PUSH1 0x20 DUP2 LT ISZERO PUSH2 0x43F JUMPI PUSH1 0x0 DUP1 REVERT JUMPDEST DUP2 ADD SWAP1 DUP1 DUP1 CALLDATALOAD SWAP1 PUSH1 0x20 ADD SWAP1 SWAP3 SWAP2 SWAP1 POP POP POP PUSH2 0xBDF JUMP JUMPDEST PUSH1 0x40 MLOAD DUP1 DUP3 DUP2 MSTORE PUSH1 0x20 ADD SWAP2 POP POP PUSH1 0x40 MLOAD DUP1 SWAP2 SUB SWAP1 RETURN JUMPDEST PUSH1 0x0 PUSH32 0x945B814800000000000000000000000000000000000000000000000000000000 PUSH28 0xFFFFFFFFFFFFFFFFFFFFFFFFFFFFFFFFFFFFFFFFFFFFFFFFFFFFFFFF NOT AND DUP3 PUSH28 0xFFFFFFFFFFFFFFFFFFFFFFFFFFFFFFFFFFFFFFFFFFFFFFFFFFFFFFFF NOT AND EQ DUP1 PUSH2 0x536 JUMPI POP PUSH32 0x1FFC9A700000000000000000000000000000000000000000000000000000000 PUSH28 0xFFFFFFFFFFFFFFFFFFFFFFFFFFFFFFFFFFFFFFFFFFFFFFFFFFFFFFFF NOT AND DUP3 PUSH28 0xFFFFFFFFFFFFFFFFFFFFFFFFFFFFFFFFFFFFFFFFFFFFFFFFFFFFFFFF NOT AND EQ JUMPDEST SWAP1 POP SWAP2 SWAP1 POP JUMP JUMPDEST PUSH1 0x0 DUP6 DUP6 DUP6 DUP6 DUP6 PUSH1 0x40 MLOAD PUSH1 0x20 ADD DUP1 DUP7 PUSH20 0xFFFFFFFFFFFFFFFFFFFFFFFFFFFFFFFFFFFFFFFF AND PUSH1 0x60 SHL DUP2 MSTORE PUSH1 0x14 ADD DUP6 DUP2 MSTORE PUSH1 0x20 ADD DUP5 DUP1 MLOAD SWAP1 PUSH1 0x20 ADD SWAP1 DUP1 DUP4 DUP4 JUMPDEST PUSH1 0x20 DUP4 LT PUSH2 0x59F JUMPI DUP1 MLOAD DUP3 MSTORE PUSH1 0x20 DUP3 ADD SWAP2 POP PUSH1 0x20 DUP2 ADD SWAP1 POP PUSH1 0x20 DUP4 SUB SWAP3 POP PUSH2 0x57C JUMP JUMPDEST PUSH1 0x1 DUP4 PUSH1 0x20 SUB PUSH2 0x100 EXP SUB DUP1 NOT DUP3 MLOAD AND DUP2 DUP5 MLOAD AND DUP1 DUP3 OR DUP6 MSTORE POP POP POP POP POP POP SWAP1 POP ADD DUP4 PUSH1 0x1 DUP2 GT ISZERO PUSH2 0x5CD JUMPI INVALID JUMPDEST PUSH1 0xF8 SHL DUP2 MSTORE PUSH1 0x1 ADD DUP3 PUSH20 0xFFFFFFFFFFFFFFFFFFFFFFFFFFFFFFFFFFFFFFFF AND PUSH1 0x60 SHL DUP2 MSTORE PUSH1 0x14 ADD SWAP6 POP POP POP POP POP POP PUSH1 0x40 MLOAD PUSH1 0x20 DUP2 DUP4 SUB SUB DUP2 MSTORE SWAP1 PUSH1 0x40 MSTORE DUP1 MLOAD SWAP1 PUSH1 0x20 ADD KECCAK256 SWAP1 POP DUP1 PUSH32 0x3C6FAEABB77E6F2D036D756DEAA3888179C615795AB4B4329874C29B03A732C7 DUP8 DUP8 DUP8 DUP8 DUP8 PUSH1 0x40 MLOAD DUP1 DUP7 PUSH20 0xFFFFFFFFFFFFFFFFFFFFFFFFFFFFFFFFFFFFFFFF AND DUP2 MSTORE PUSH1 0x20 ADD DUP6 DUP2 MSTORE PUSH1 0x20 ADD DUP1 PUSH1 0x20 ADD DUP5 PUSH1 0x1 DUP2 GT ISZERO PUSH2 0x670 JUMPI INVALID JUMPDEST DUP2 MSTORE PUSH1 0x20 ADD DUP4 PUSH20 0xFFFFFFFFFFFFFFFFFFFFFFFFFFFFFFFFFFFFFFFF AND DUP2 MSTORE PUSH1 0x20 ADD DUP3 DUP2 SUB DUP3 MSTORE DUP6 DUP2 DUP2 MLOAD DUP2 MSTORE PUSH1 0x20 ADD SWAP2 POP DUP1 MLOAD SWAP1 PUSH1 0x20 ADD SWAP1 DUP1 DUP4 DUP4 PUSH1 0x0 JUMPDEST DUP4 DUP2 LT ISZERO PUSH2 0x6C9 JUMPI DUP1 DUP3 ADD MLOAD DUP2 DUP5 ADD MSTORE PUSH1 0x20 DUP2 ADD SWAP1 POP PUSH2 0x6AE JUMP JUMPDEST POP POP POP POP SWAP1 POP SWAP1 DUP2 ADD SWAP1 PUSH1 0x1F AND DUP1 ISZERO PUSH2 0x6F6 JUMPI DUP1 DUP3 SUB DUP1 MLOAD PUSH1 0x1 DUP4 PUSH1 0x20 SUB PUSH2 0x100 EXP SUB NOT AND DUP2 MSTORE PUSH1 0x20 ADD SWAP2 POP JUMPDEST POP SWAP7 POP POP POP POP POP POP POP PUSH1 0x40 MLOAD DUP1 SWAP2 SUB SWAP1 LOG2 SWAP6 SWAP5 POP POP POP POP POP JUMP JUMPDEST PUSH1 0x0 DUP1 PUSH1 0x0 CALLER SWAP1 POP PUSH1 0x1 DUP2 PUSH20 0xFFFFFFFFFFFFFFFFFFFFFFFFFFFFFFFFFFFFFFFF AND PUSH4 0xAFFED0E0 PUSH1 0x40 MLOAD DUP2 PUSH4 0xFFFFFFFF AND PUSH1 0xE0 SHL DUP2 MSTORE PUSH1 0x4 ADD PUSH1 0x20 PUSH1 0x40 MLOAD DUP1 DUP4 SUB DUP2 DUP7 DUP1 EXTCODESIZE ISZERO DUP1 ISZERO PUSH2 0x760 JUMPI PUSH1 0x0 DUP1 REVERT JUMPDEST POP GAS STATICCALL ISZERO DUP1 ISZERO PUSH2 0x774 JUMPI RETURNDATASIZE PUSH1 0x0 DUP1 RETURNDATACOPY RETURNDATASIZE PUSH1 0x0 REVERT JUMPDEST POP POP POP POP PUSH1 0x40 MLOAD RETURNDATASIZE PUSH1 0x20 DUP2 LT ISZERO PUSH2 0x78A JUMPI PUSH1 0x0 DUP1 REVERT JUMPDEST DUP2 ADD SWAP1 DUP1 DUP1 MLOAD SWAP1 PUSH1 0x20 ADD SWAP1 SWAP3 SWAP2 SWAP1 POP POP POP SUB SWAP3 POP DUP1 PUSH20 0xFFFFFFFFFFFFFFFFFFFFFFFFFFFFFFFFFFFFFFFF AND PUSH4 0xD8D11F78 DUP16 DUP16 DUP16 DUP16 DUP16 DUP16 DUP16 DUP16 DUP16 DUP14 PUSH1 0x40 MLOAD DUP12 PUSH4 0xFFFFFFFF AND PUSH1 0xE0 SHL DUP2 MSTORE PUSH1 0x4 ADD DUP1 DUP12 PUSH20 0xFFFFFFFFFFFFFFFFFFFFFFFFFFFFFFFFFFFFFFFF AND DUP2 MSTORE PUSH1 0x20 ADD DUP11 DUP2 MSTORE PUSH1 0x20 ADD DUP1 PUSH1 0x20 ADD DUP10 PUSH1 0x1 DUP2 GT ISZERO PUSH2 0x809 JUMPI INVALID JUMPDEST DUP2 MSTORE PUSH1 0x20 ADD DUP9 DUP2 MSTORE PUSH1 0x20 ADD DUP8 DUP2 MSTORE PUSH1 0x20 ADD DUP7 DUP2 MSTORE PUSH1 0x20 ADD DUP6 PUSH20 0xFFFFFFFFFFFFFFFFFFFFFFFFFFFFFFFFFFFFFFFF AND DUP2 MSTORE PUSH1 0x20 ADD DUP5 PUSH20 0xFFFFFFFFFFFFFFFFFFFFFFFFFFFFFFFFFFFFFFFF AND DUP2 MSTORE PUSH1 0x20 ADD DUP4 DUP2 MSTORE PUSH1 0x20 ADD DUP3 DUP2 SUB DUP3 MSTORE DUP11 DUP2 DUP2 MLOAD DUP2 MSTORE PUSH1 0x20 ADD SWAP2 POP DUP1 MLOAD SWAP1 PUSH1 0x20 ADD SWAP1 DUP1 DUP4 DUP4 PUSH1 0x0 JUMPDEST DUP4 DUP2 LT ISZERO PUSH2 0x896 JUMPI DUP1 DUP3 ADD MLOAD DUP2 DUP5 ADD MSTORE PUSH1 0x20 DUP2 ADD SWAP1 POP PUSH2 0x87B JUMP JUMPDEST POP POP POP POP SWAP1 POP SWAP1 DUP2 ADD SWAP1 PUSH1 0x1F AND DUP1 ISZERO PUSH2 0x8C3 JUMPI DUP1 DUP3 SUB DUP1 MLOAD PUSH1 0x1 DUP4 PUSH1 0x20 SUB PUSH2 0x100 EXP SUB NOT AND DUP2 MSTORE PUSH1 0x20 ADD SWAP2 POP JUMPDEST POP SWAP12 POP POP POP POP POP POP POP POP POP POP POP POP PUSH1 0x20 PUSH1 0x40 MLOAD DUP1 DUP4 SUB DUP2 DUP7 DUP1 EXTCODESIZE ISZERO DUP1 ISZERO PUSH2 0x8E9 JUMPI PUSH1 0x0 DUP1 REVERT JUMPDEST POP GAS STATICCALL ISZERO DUP1 ISZERO PUSH2 0x8FD JUMPI RETURNDATASIZE PUSH1 0x0 DUP1 RETURNDATACOPY RETURNDATASIZE PUSH1 0x0 REVERT JUMPDEST POP POP POP POP PUSH1 0x40 MLOAD RETURNDATASIZE PUSH1 0x20 DUP2 LT ISZERO PUSH2 0x913 JUMPI PUSH1 0x0 DUP1 REVERT JUMPDEST DUP2 ADD SWAP1 DUP1 DUP1 MLOAD SWAP1 PUSH1 0x20 ADD SWAP1 SWAP3 SWAP2 SWAP1 POP POP POP SWAP2 POP POP DUP1 CALLER PUSH20 0xFFFFFFFFFFFFFFFFFFFFFFFFFFFFFFFFFFFFFFFF AND PUSH32 0xA65FEF32CD19A6639A4BF7A6D196F132C151E4F0BBD2706F7F831B3A778E1AC0 DUP16 DUP16 DUP16 DUP16 DUP16 PUSH1 0x0 DUP16 GT DUP11 DUP14 DUP14 PUSH1 0x40 MLOAD DUP1 DUP11 PUSH20 0xFFFFFFFFFFFFFFFFFFFFFFFFFFFFFFFFFFFFFFFF AND DUP2 MSTORE PUSH1 0x20 ADD DUP10 DUP2 MSTORE PUSH1 0x20 ADD DUP1 PUSH1 0x20 ADD DUP9 PUSH1 0x1 DUP2 GT ISZERO PUSH2 0x9A2 JUMPI INVALID JUMPDEST DUP2 MSTORE PUSH1 0x20 ADD DUP8 DUP2 MSTORE PUSH1 0x20 ADD DUP7 ISZERO ISZERO DUP2 MSTORE PUSH1 0x20 ADD DUP6 DUP2 MSTORE PUSH1 0x20 ADD DUP1 PUSH1 0x20 ADD DUP5 PUSH20 0xFFFFFFFFFFFFFFFFFFFFFFFFFFFFFFFFFFFFFFFF AND DUP2 MSTORE PUSH1 0x20 ADD DUP4 DUP2 SUB DUP4 MSTORE DUP11 DUP2 DUP2 MLOAD DUP2 MSTORE PUSH1 0x20 ADD SWAP2 POP DUP1 MLOAD SWAP1 PUSH1 0x20 ADD SWAP1 DUP1 DUP4 DUP4 PUSH1 0x0 JUMPDEST DUP4 DUP2 LT ISZERO PUSH2 0xA13 JUMPI DUP1 DUP3 ADD MLOAD DUP2 DUP5 ADD MSTORE PUSH1 0x20 DUP2 ADD SWAP1 POP PUSH2 0x9F8 JUMP JUMPDEST POP POP POP POP SWAP1 POP SWAP1 DUP2 ADD SWAP1 PUSH1 0x1F AND DUP1 ISZERO PUSH2 0xA40 JUMPI DUP1 DUP3 SUB DUP1 MLOAD PUSH1 0x1 DUP4 PUSH1 0x20 SUB PUSH2 0x100 EXP SUB NOT AND DUP2 MSTORE PUSH1 0x20 ADD SWAP2 POP JUMPDEST POP DUP4 DUP2 SUB DUP3 MSTORE DUP6 DUP2 DUP2 MLOAD DUP2 MSTORE PUSH1 0x20 ADD SWAP2 POP DUP1 MLOAD SWAP1 PUSH1 0x20 ADD SWAP1 DUP1 DUP4 DUP4 PUSH1 0x0 JUMPDEST DUP4 DUP2 LT ISZERO PUSH2 0xA79 JUMPI DUP1 DUP3 ADD MLOAD DUP2 DUP5 ADD MSTORE PUSH1 0x20 DUP2 ADD SWAP1 POP PUSH2 0xA5E JUMP JUMPDEST POP POP POP POP SWAP1 POP SWAP1 DUP2 ADD SWAP1 PUSH1 0x1F AND DUP1 ISZERO PUSH2 0xAA6 JUMPI DUP1 DUP3 SUB DUP1 MLOAD PUSH1 0x1 DUP4 PUSH1 0x20 SUB PUSH2 0x100 EXP SUB NOT AND DUP2 MSTORE PUSH1 0x20 ADD SWAP2 POP JUMPDEST POP SWAP12 POP POP POP POP POP POP POP POP POP POP POP POP PUSH1 0x40 MLOAD DUP1 SWAP2 SUB SWAP1 LOG3 DUP2 PUSH1 0x0 DUP1 DUP4 DUP2 MSTORE PUSH1 0x20 ADD SWAP1 DUP2 MSTORE PUSH1 0x20 ADD PUSH1 0x0 KECCAK256 DUP2 SWAP1 SSTORE POP POP POP POP POP POP POP POP POP POP POP POP POP POP JUMP JUMPDEST PUSH1 0x0 DUP1 PUSH1 0x0 DUP5 DUP2 MSTORE PUSH1 0x20 ADD SWAP1 DUP2 MSTORE PUSH1 0x20 ADD PUSH1 0x0 KECCAK256 SLOAD SWAP1 POP PUSH1 0x0 DUP2 EQ ISZERO PUSH2 0xB70 JUMPI PUSH1 0x40 MLOAD PUSH32 0x8C379A000000000000000000000000000000000000000000000000000000000 DUP2 MSTORE PUSH1 0x4 ADD DUP1 DUP1 PUSH1 0x20 ADD DUP3 DUP2 SUB DUP3 MSTORE PUSH1 0x13 DUP2 MSTORE PUSH1 0x20 ADD DUP1 PUSH32 0x436F756C64206E6F7420676574206E6F6E636500000000000000000000000000 DUP2 MSTORE POP PUSH1 0x20 ADD SWAP2 POP POP PUSH1 0x40 MLOAD DUP1 SWAP2 SUB SWAP1 REVERT JUMPDEST PUSH1 0x0 DUP1 PUSH1 0x0 DUP6 DUP2 MSTORE PUSH1 0x20 ADD SWAP1 DUP2 MSTORE PUSH1 0x20 ADD PUSH1 0x0 KECCAK256 DUP2 SWAP1 SSTORE POP DUP1 DUP4 CALLER PUSH20 0xFFFFFFFFFFFFFFFFFFFFFFFFFFFFFFFFFFFFFFFF AND PUSH32 0xDCC0FB56A30B6FE6B188F45B47369BC7F3C928A9748E245A79FC3F54DDD0568 DUP6 PUSH1 0x40 MLOAD DUP1 DUP3 ISZERO ISZERO DUP2 MSTORE PUSH1 0x20 ADD SWAP2 POP POP PUSH1 0x40 MLOAD DUP1 SWAP2 SUB SWAP1 LOG4 POP POP POP JUMP JUMPDEST PUSH1 0x0 PUSH1 0x20 MSTORE DUP1 PUSH1 0x0 MSTORE PUSH1 0x40 PUSH1 0x0 KECCAK256 PUSH1 0x0 SWAP2 POP SWAP1 POP SLOAD DUP2 JUMP INVALID LOG2 PUSH5 0x6970667358 0x22 SLT KECCAK256 0xCD CODECOPY DUP1 0xEA SSTORE DUP10 DUP12 0xDB 0xAC 0xF9 SWAP15 CODECOPY PUSH26 0x878DEC432BFAF1DFB8D86B046A5AC64E93B19F64736F6C634300 SMOD MOD STOP CALLER "},"gasEstimates":{"creation":{"codeDepositCost":"623400","executionCost":"657","totalCost":"624057"},"external":{"":"197","checkAfterExecution(bytes32,bool)":"8528","checkModuleTransaction(address,uint256,bytes,uint8,address)":"infinite","checkTransaction(address,uint256,bytes,uint8,uint256,uint256,uint256,address,address,bytes,address)":"infinite","supportsInterface(bytes4)":"363","txNonces(bytes32)":"1229"}},"methodIdentifiers":{"checkAfterExecution(bytes32,bool)":"93271368","checkModuleTransaction(address,uint256,bytes,uint8,address)":"728c2972","checkTransaction(address,uint256,bytes,uint8,uint256,uint256,uint256,address,address,bytes,address)":"75f0bb52","supportsInterface(bytes4)":"01ffc9a7","txNonces(bytes32)":"ddbdba63"}},"storageLayout":{"storage":[{"astId":2678,"contract":"contracts/examples/guards/DebugTransactionGuard.sol:DebugTransactionGuard","label":"txNonces","offset":0,"slot":"0","type":"t_mapping(t_bytes32,t_uint256)"}],"types":{"t_bytes32":{"encoding":"inplace","label":"bytes32","numberOfBytes":"32"},"t_mapping(t_bytes32,t_uint256)":{"encoding":"mapping","key":"t_bytes32","label":"mapping(bytes32 => uint256)","numberOfBytes":"32","value":"t_uint256"},"t_uint256":{"encoding":"inplace","label":"uint256","numberOfBytes":"32"}}},"userdoc":{"kind":"user","methods":{"checkAfterExecution(bytes32,bool)":{"notice":"Called by the Safe contract after a transaction is executed."},"checkModuleTransaction(address,uint256,bytes,uint8,address)":{"notice":"Called by the Safe contract before a transaction is executed via a module."},"checkTransaction(address,uint256,bytes,uint8,uint256,uint256,uint256,address,address,bytes,address)":{"notice":"Called by the Safe contract before a transaction is executed."}},"version":1}}}}