{"contracts/examples/libraries/Migrate_1_3_0_to_1_2_0.sol":{"Migration":{"abi":[{"inputs":[{"internalType":"address","name":"targetSingleton","type":"address"}],"stateMutability":"nonpayable","type":"constructor"},{"anonymous":false,"inputs":[{"indexed":false,"internalType":"address","name":"singleton","type":"address"}],"name":"ChangedMasterCopy","type":"event"},{"inputs":[],"name":"MIGRATION_SINGLETON","outputs":[{"internalType":"address","name":"","type":"address"}],"stateMutability":"view","type":"function"},{"inputs":[],"name":"SAFE_120_SINGLETON","outputs":[{"internalType":"address","name":"","type":"address"}],"stateMutability":"view","type":"function"},{"inputs":[],"name":"migrate","outputs":[],"stateMutability":"nonpayable","type":"function"}],"devdoc":{"author":"Richard Meissner - @rmeissner","kind":"dev","methods":{"migrate()":{"details":"This can only be called via a delegatecall."}},"title":"Migration - Migrates a Safe contract from 1.3.0 to 1.2.0","version":1},"evm":{"bytecode":{"linkReferences":{},"object":"60c060405234801561001057600080fd5b506040516104d43803806104d48339818101604052602081101561003357600080fd5b8101908080519060200190929190505050600073ffffffffffffffffffffffffffffffffffffffff168173ffffffffffffffffffffffffffffffffffffffff1614156100ca576040517f08c379a00000000000000000000000000000000000000000000000000000000081526004018080602001828103825260228152602001806104b26022913960400191505060405180910390fd5b8073ffffffffffffffffffffffffffffffffffffffff1660a08173ffffffffffffffffffffffffffffffffffffffff1660601b815250503073ffffffffffffffffffffffffffffffffffffffff1660808173ffffffffffffffffffffffffffffffffffffffff1660601b815250505060805160601c60a05160601c61034861016a6000398060ba52806101a752508060de528061010252506103486000f3fe608060405234801561001057600080fd5b50600436106100415760003560e01c806310dfd5061461004657806372f7a9561461007a5780638fd3ab80146100ae575b600080fd5b61004e6100b8565b604051808273ffffffffffffffffffffffffffffffffffffffff16815260200191505060405180910390f35b6100826100dc565b604051808273ffffffffffffffffffffffffffffffffffffffff16815260200191505060405180910390f35b6100b6610100565b005b7f000000000000000000000000000000000000000000000000000000000000000081565b7f000000000000000000000000000000000000000000000000000000000000000081565b7f000000000000000000000000000000000000000000000000000000000000000073ffffffffffffffffffffffffffffffffffffffff163073ffffffffffffffffffffffffffffffffffffffff1614156101a5576040517f08c379a00000000000000000000000000000000000000000000000000000000081526004018080602001828103825260308152602001806102e36030913960400191505060405180910390fd5b7f00000000000000000000000000000000000000000000000000000000000000006000806101000a81548173ffffffffffffffffffffffffffffffffffffffff021916908373ffffffffffffffffffffffffffffffffffffffff1602179055507f035aff83d86937d35b32e04f0ddc6ff469290eef2f1b692d8a815c89404d474960001b30604051602001808381526020018273ffffffffffffffffffffffffffffffffffffffff16815260200192505050604051602081830303815290604052805190602001206006819055507f75e41bc35ff1bf14d81d1d2f649c0084a0f974f9289c803ec9898eeec4c8d0b860008054906101000a900473ffffffffffffffffffffffffffffffffffffffff16604051808273ffffffffffffffffffffffffffffffffffffffff16815260200191505060405180910390a156fe4d6967726174696f6e2073686f756c64206f6e6c792062652063616c6c6564207669612064656c656761746563616c6ca2646970667358221220439513640813d1fe3090885dc04f84edfee78da22daa5a884a788199408ed1ad64736f6c63430007060033496e76616c69642073696e676c65746f6e20616464726573732070726f7669646564","opcodes":"PUSH1 0xC0 PUSH1 0x40 MSTORE CALLVALUE DUP1 ISZERO PUSH2 0x10 JUMPI PUSH1 0x0 DUP1 REVERT JUMPDEST POP PUSH1 0x40 MLOAD PUSH2 0x4D4 CODESIZE SUB DUP1 PUSH2 0x4D4 DUP4 CODECOPY DUP2 DUP2 ADD PUSH1 0x40 MSTORE PUSH1 0x20 DUP2 LT ISZERO PUSH2 0x33 JUMPI PUSH1 0x0 DUP1 REVERT JUMPDEST DUP2 ADD SWAP1 DUP1 DUP1 MLOAD SWAP1 PUSH1 0x20 ADD SWAP1 SWAP3 SWAP2 SWAP1 POP POP POP PUSH1 0x0 PUSH20 0xFFFFFFFFFFFFFFFFFFFFFFFFFFFFFFFFFFFFFFFF AND DUP2 PUSH20 0xFFFFFFFFFFFFFFFFFFFFFFFFFFFFFFFFFFFFFFFF AND EQ ISZERO PUSH2 0xCA JUMPI PUSH1 0x40 MLOAD PUSH32 0x8C379A000000000000000000000000000000000000000000000000000000000 DUP2 MSTORE PUSH1 0x4 ADD DUP1 DUP1 PUSH1 0x20 ADD DUP3 DUP2 SUB DUP3 MSTORE PUSH1 0x22 DUP2 MSTORE PUSH1 0x20 ADD DUP1 PUSH2 0x4B2 PUSH1 0x22 SWAP2 CODECOPY PUSH1 0x40 ADD SWAP2 POP POP PUSH1 0x40 MLOAD DUP1 SWAP2 SUB SWAP1 REVERT JUMPDEST DUP1 PUSH20 0xFFFFFFFFFFFFFFFFFFFFFFFFFFFFFFFFFFFFFFFF AND PUSH1 0xA0 DUP2 PUSH20 0xFFFFFFFFFFFFFFFFFFFFFFFFFFFFFFFFFFFFFFFF AND PUSH1 0x60 SHL DUP2 MSTORE POP POP ADDRESS PUSH20 0xFFFFFFFFFFFFFFFFFFFFFFFFFFFFFFFFFFFFFFFF AND PUSH1 0x80 DUP2 PUSH20 0xFFFFFFFFFFFFFFFFFFFFFFFFFFFFFFFFFFFFFFFF AND PUSH1 0x60 SHL DUP2 MSTORE POP POP POP PUSH1 0x80 MLOAD PUSH1 0x60 SHR PUSH1 0xA0 MLOAD PUSH1 0x60 SHR PUSH2 0x348 PUSH2 0x16A PUSH1 0x0 CODECOPY DUP1 PUSH1 0xBA MSTORE DUP1 PUSH2 0x1A7 MSTORE POP DUP1 PUSH1 0xDE MSTORE DUP1 PUSH2 0x102 MSTORE POP PUSH2 0x348 PUSH1 0x0 RETURN INVALID PUSH1 0x80 PUSH1 0x40 MSTORE CALLVALUE DUP1 ISZERO PUSH2 0x10 JUMPI PUSH1 0x0 DUP1 REVERT JUMPDEST POP PUSH1 0x4 CALLDATASIZE LT PUSH2 0x41 JUMPI PUSH1 0x0 CALLDATALOAD PUSH1 0xE0 SHR DUP1 PUSH4 0x10DFD506 EQ PUSH2 0x46 JUMPI DUP1 PUSH4 0x72F7A956 EQ PUSH2 0x7A JUMPI DUP1 PUSH4 0x8FD3AB80 EQ PUSH2 0xAE JUMPI JUMPDEST PUSH1 0x0 DUP1 REVERT JUMPDEST PUSH2 0x4E PUSH2 0xB8 JUMP JUMPDEST PUSH1 0x40 MLOAD DUP1 DUP3 PUSH20 0xFFFFFFFFFFFFFFFFFFFFFFFFFFFFFFFFFFFFFFFF AND DUP2 MSTORE PUSH1 0x20 ADD SWAP2 POP POP PUSH1 0x40 MLOAD DUP1 SWAP2 SUB SWAP1 RETURN JUMPDEST PUSH2 0x82 PUSH2 0xDC JUMP JUMPDEST PUSH1 0x40 MLOAD DUP1 DUP3 PUSH20 0xFFFFFFFFFFFFFFFFFFFFFFFFFFFFFFFFFFFFFFFF AND DUP2 MSTORE PUSH1 0x20 ADD SWAP2 POP POP PUSH1 0x40 MLOAD DUP1 SWAP2 SUB SWAP1 RETURN JUMPDEST PUSH2 0xB6 PUSH2 0x100 JUMP JUMPDEST STOP JUMPDEST PUSH32 0x0 DUP2 JUMP JUMPDEST PUSH32 0x0 DUP2 JUMP JUMPDEST PUSH32 0x0 PUSH20 0xFFFFFFFFFFFFFFFFFFFFFFFFFFFFFFFFFFFFFFFF AND ADDRESS PUSH20 0xFFFFFFFFFFFFFFFFFFFFFFFFFFFFFFFFFFFFFFFF AND EQ ISZERO PUSH2 0x1A5 JUMPI PUSH1 0x40 MLOAD PUSH32 0x8C379A000000000000000000000000000000000000000000000000000000000 DUP2 MSTORE PUSH1 0x4 ADD DUP1 DUP1 PUSH1 0x20 ADD DUP3 DUP2 SUB DUP3 MSTORE PUSH1 0x30 DUP2 MSTORE PUSH1 0x20 ADD DUP1 PUSH2 0x2E3 PUSH1 0x30 SWAP2 CODECOPY PUSH1 0x40 ADD SWAP2 POP POP PUSH1 0x40 MLOAD DUP1 SWAP2 SUB SWAP1 REVERT JUMPDEST PUSH32 0x0 PUSH1 0x0 DUP1 PUSH2 0x100 EXP DUP2 SLOAD DUP2 PUSH20 0xFFFFFFFFFFFFFFFFFFFFFFFFFFFFFFFFFFFFFFFF MUL NOT AND SWAP1 DUP4 PUSH20 0xFFFFFFFFFFFFFFFFFFFFFFFFFFFFFFFFFFFFFFFF AND MUL OR SWAP1 SSTORE POP PUSH32 0x35AFF83D86937D35B32E04F0DDC6FF469290EEF2F1B692D8A815C89404D4749 PUSH1 0x0 SHL ADDRESS PUSH1 0x40 MLOAD PUSH1 0x20 ADD DUP1 DUP4 DUP2 MSTORE PUSH1 0x20 ADD DUP3 PUSH20 0xFFFFFFFFFFFFFFFFFFFFFFFFFFFFFFFFFFFFFFFF AND DUP2 MSTORE PUSH1 0x20 ADD SWAP3 POP POP POP PUSH1 0x40 MLOAD PUSH1 0x20 DUP2 DUP4 SUB SUB DUP2 MSTORE SWAP1 PUSH1 0x40 MSTORE DUP1 MLOAD SWAP1 PUSH1 0x20 ADD KECCAK256 PUSH1 0x6 DUP2 SWAP1 SSTORE POP PUSH32 0x75E41BC35FF1BF14D81D1D2F649C0084A0F974F9289C803EC9898EEEC4C8D0B8 PUSH1 0x0 DUP1 SLOAD SWAP1 PUSH2 0x100 EXP SWAP1 DIV PUSH20 0xFFFFFFFFFFFFFFFFFFFFFFFFFFFFFFFFFFFFFFFF AND PUSH1 0x40 MLOAD DUP1 DUP3 PUSH20 0xFFFFFFFFFFFFFFFFFFFFFFFFFFFFFFFFFFFFFFFF AND DUP2 MSTORE PUSH1 0x20 ADD SWAP2 POP POP PUSH1 0x40 MLOAD DUP1 SWAP2 SUB SWAP1 LOG1 JUMP INVALID 0x4D PUSH10 0x67726174696F6E207368 PUSH16 0x756C64206F6E6C792062652063616C6C PUSH6 0x642076696120 PUSH5 0x656C656761 PUSH21 0x6563616C6CA2646970667358221220439513640813 0xD1 INVALID ADDRESS SWAP1 DUP9 0x5D 0xC0 0x4F DUP5 0xED INVALID 0xE7 DUP14 LOG2 0x2D 0xAA GAS DUP9 0x4A PUSH25 0x8199408ED1AD64736F6C63430007060033496E76616C696420 PUSH20 0x696E676C65746F6E20616464726573732070726F PUSH23 0x6964656400000000000000000000000000000000000000 "},"gasEstimates":{"creation":{"codeDepositCost":"168000","executionCost":"infinite","totalCost":"infinite"},"external":{"MIGRATION_SINGLETON()":"infinite","SAFE_120_SINGLETON()":"infinite","migrate()":"infinite"}},"methodIdentifiers":{"MIGRATION_SINGLETON()":"72f7a956","SAFE_120_SINGLETON()":"10dfd506","migrate()":"8fd3ab80"}},"storageLayout":{"storage":[{"astId":4784,"contract":"contracts/examples/libraries/Migrate_1_3_0_to_1_2_0.sol:Migration","label":"singleton","offset":0,"slot":"0","type":"t_address"},{"astId":4788,"contract":"contracts/examples/libraries/Migrate_1_3_0_to_1_2_0.sol:Migration","label":"modules","offset":0,"slot":"1","type":"t_mapping(t_address,t_address)"},{"astId":4792,"contract":"contracts/examples/libraries/Migrate_1_3_0_to_1_2_0.sol:Migration","label":"owners","offset":0,"slot":"2","type":"t_mapping(t_address,t_address)"},{"astId":4794,"contract":"contracts/examples/libraries/Migrate_1_3_0_to_1_2_0.sol:Migration","label":"ownerCount","offset":0,"slot":"3","type":"t_uint256"},{"astId":4796,"contract":"contracts/examples/libraries/Migrate_1_3_0_to_1_2_0.sol:Migration","label":"threshold","offset":0,"slot":"4","type":"t_uint256"},{"astId":4798,"contract":"contracts/examples/libraries/Migrate_1_3_0_to_1_2_0.sol:Migration","label":"nonce","offset":0,"slot":"5","type":"t_uint256"},{"astId":4800,"contract":"contracts/examples/libraries/Migrate_1_3_0_to_1_2_0.sol:Migration","label":"_deprecatedDomainSeparator","offset":0,"slot":"6","type":"t_bytes32"},{"astId":4804,"contract":"contracts/examples/libraries/Migrate_1_3_0_to_1_2_0.sol:Migration","label":"signedMessages","offset":0,"slot":"7","type":"t_mapping(t_bytes32,t_uint256)"},{"astId":4810,"contract":"contracts/examples/libraries/Migrate_1_3_0_to_1_2_0.sol:Migration","label":"approvedHashes","offset":0,"slot":"8","type":"t_mapping(t_address,t_mapping(t_bytes32,t_uint256))"}],"types":{"t_address":{"encoding":"inplace","label":"address","numberOfBytes":"20"},"t_bytes32":{"encoding":"inplace","label":"bytes32","numberOfBytes":"32"},"t_mapping(t_address,t_address)":{"encoding":"mapping","key":"t_address","label":"mapping(address => address)","numberOfBytes":"32","value":"t_address"},"t_mapping(t_address,t_mapping(t_bytes32,t_uint256))":{"encoding":"mapping","key":"t_address","label":"mapping(address => mapping(bytes32 => uint256))","numberOfBytes":"32","value":"t_mapping(t_bytes32,t_uint256)"},"t_mapping(t_bytes32,t_uint256)":{"encoding":"mapping","key":"t_bytes32","label":"mapping(bytes32 => uint256)","numberOfBytes":"32","value":"t_uint256"},"t_uint256":{"encoding":"inplace","label":"uint256","numberOfBytes":"32"}}},"userdoc":{"kind":"user","methods":{"migrate()":{"notice":"Migrates the Safe to the Singleton contract at `migrationSingleton`."}},"version":1}}}}