{"contracts/libraries/Safe150Migration.sol":{"Safe150Migration":{"abi":[{"inputs":[],"stateMutability":"nonpayable","type":"constructor"},{"anonymous":false,"inputs":[{"indexed":false,"internalType":"address","name":"singleton","type":"address"}],"name":"ChangedMasterCopy","type":"event"},{"inputs":[],"name":"SAFE_150_FALLBACK_HANDLER","outputs":[{"internalType":"address","name":"","type":"address"}],"stateMutability":"view","type":"function"},{"inputs":[],"name":"SAFE_150_SINGLETON","outputs":[{"internalType":"address","name":"","type":"address"}],"stateMutability":"view","type":"function"},{"inputs":[],"name":"SAFE_150_SINGLETON_L2","outputs":[{"internalType":"address","name":"","type":"address"}],"stateMutability":"view","type":"function"},{"inputs":[],"name":"migrateL2Singleton","outputs":[],"stateMutability":"nonpayable","type":"function"},{"inputs":[],"name":"migrateL2WithFallbackHandler","outputs":[],"stateMutability":"nonpayable","type":"function"},{"inputs":[{"internalType":"address","name":"guard","type":"address"}],"name":"migrateL2WithSetGuard","outputs":[],"stateMutability":"nonpayable","type":"function"},{"inputs":[{"internalType":"address","name":"guard","type":"address"}],"name":"migrateL2WithSetGuardAndFallbackHandler","outputs":[],"stateMutability":"nonpayable","type":"function"},{"inputs":[],"name":"migrateSingleton","outputs":[],"stateMutability":"nonpayable","type":"function"},{"inputs":[],"name":"migrateWithFallbackHandler","outputs":[],"stateMutability":"nonpayable","type":"function"},{"inputs":[{"internalType":"address","name":"guard","type":"address"}],"name":"migrateWithSetGuard","outputs":[],"stateMutability":"nonpayable","type":"function"},{"inputs":[{"internalType":"address","name":"guard","type":"address"}],"name":"migrateWithSetGuardAndFallbackHandler","outputs":[],"stateMutability":"nonpayable","type":"function"}],"devdoc":{"details":"IMPORTANT: The library is intended to be used with the Safe standard proxy that stores the singleton address      at the storage slot 0. Use at your own risk with custom proxy implementations. The library will block calls      if the address stored at the storage slot 0 is not a contract.","events":{"ChangedMasterCopy(address)":{"params":{"singleton":"New master copy address"}}},"kind":"dev","methods":{"constructor":{"details":"Initializes the migrationSingleton with the contract's own address."},"migrateL2Singleton()":{"details":"This function should only be called via a delegatecall to perform the upgrade."},"migrateL2WithSetGuard(address)":{"params":{"guard":"The address of the new guard contract."}},"migrateL2WithSetGuardAndFallbackHandler(address)":{"params":{"guard":"The address of the new guard contract."}},"migrateSingleton()":{"details":"This function should only be called via a delegatecall to perform the upgrade."},"migrateWithSetGuard(address)":{"params":{"guard":"The address of the new guard contract."}},"migrateWithSetGuardAndFallbackHandler(address)":{"params":{"guard":"The address of the new guard contract."}}},"title":"Migration Contract for Safe Upgrade","version":1},"evm":{"bytecode":{"linkReferences":{},"object":"608060405234801561001057600080fd5b506100347388627c8904ecd9df96a572ef32a7ff13b199ed8d61017e60201b60201c565b610089576040517f08c379a0000000000000000000000000000000000000000000000000000000008152600401808060200182810382526024815260200180610de66024913960400191505060405180910390fd5b6100ac730ee37514644683f7eb9745a5726c722deba77e5261017e60201b60201c565b610101576040517f08c379a0000000000000000000000000000000000000000000000000000000008152600401808060200182810382526029815260200180610e0a6029913960400191505060405180910390fd5b610124738aa755cb169991fedc3e306751dcb71964a041c761017e60201b60201c565b610179576040517f08c379a000000000000000000000000000000000000000000000000000000000815260040180806020018281038252602b815260200180610e33602b913960400191505060405180910390fd5b610191565b600080823b905060008111915050919050565b610c46806101a06000396000f3fe608060405234801561001057600080fd5b50600436106100a95760003560e01c8063a5e2eedc11610071578063a5e2eedc1461016e578063b7a446f3146101a2578063dc162932146101e6578063ec7b48c91461022a578063ed007fc61461026e578063f6682ab014610278576100a9565b806307f464a4146100ae5780630db9ceab146100b85780631e98bdc9146100ec57806368cb3d9414610120578063807b56d71461012a575b600080fd5b6100b6610282565b005b6100c0610355565b604051808273ffffffffffffffffffffffffffffffffffffffff16815260200191505060405180910390f35b6100f461036d565b604051808273ffffffffffffffffffffffffffffffffffffffff16815260200191505060405180910390f35b610128610385565b005b61016c6004803603602081101561014057600080fd5b81019080803573ffffffffffffffffffffffffffffffffffffffff16906020019092919050505061042c565b005b6101766104d5565b604051808273ffffffffffffffffffffffffffffffffffffffff16815260200191505060405180910390f35b6101e4600480360360208110156101b857600080fd5b81019080803573ffffffffffffffffffffffffffffffffffffffff1690602001909291905050506104ed565b005b610228600480360360208110156101fc57600080fd5b81019080803573ffffffffffffffffffffffffffffffffffffffff16906020019092919050505061063a565b005b61026c6004803603602081101561024057600080fd5b81019080803573ffffffffffffffffffffffffffffffffffffffff169060200190929190505050610787565b005b610276610830565b005b6102806108d7565b005b61028a6109aa565b610292610a2a565b730ee37514644683f7eb9745a5726c722deba77e526000806101000a81548173ffffffffffffffffffffffffffffffffffffffff021916908373ffffffffffffffffffffffffffffffffffffffff1602179055507f75e41bc35ff1bf14d81d1d2f649c0084a0f974f9289c803ec9898eeec4c8d0b860008054906101000a900473ffffffffffffffffffffffffffffffffffffffff16604051808273ffffffffffffffffffffffffffffffffffffffff16815260200191505060405180910390a1565b730ee37514644683f7eb9745a5726c722deba77e5281565b738aa755cb169991fedc3e306751dcb71964a041c781565b61038d6109aa565b610395610282565b3073ffffffffffffffffffffffffffffffffffffffff1663f08a0323738aa755cb169991fedc3e306751dcb71964a041c76040518263ffffffff1660e01b8152600401808273ffffffffffffffffffffffffffffffffffffffff168152602001915050600060405180830381600087803b15801561041257600080fd5b505af1158015610426573d6000803e3d6000fd5b50505050565b6104346109aa565b61043d816104ed565b3073ffffffffffffffffffffffffffffffffffffffff1663f08a0323738aa755cb169991fedc3e306751dcb71964a041c76040518263ffffffff1660e01b8152600401808273ffffffffffffffffffffffffffffffffffffffff168152602001915050600060405180830381600087803b1580156104ba57600080fd5b505af11580156104ce573d6000803e3d6000fd5b5050505050565b7388627c8904ecd9df96a572ef32a7ff13b199ed8d81565b6104f56109aa565b7388627c8904ecd9df96a572ef32a7ff13b199ed8d6000806101000a81548173ffffffffffffffffffffffffffffffffffffffff021916908373ffffffffffffffffffffffffffffffffffffffff1602179055507f75e41bc35ff1bf14d81d1d2f649c0084a0f974f9289c803ec9898eeec4c8d0b860008054906101000a900473ffffffffffffffffffffffffffffffffffffffff16604051808273ffffffffffffffffffffffffffffffffffffffff16815260200191505060405180910390a13073ffffffffffffffffffffffffffffffffffffffff1663e19a9dd9826040518263ffffffff1660e01b8152600401808273ffffffffffffffffffffffffffffffffffffffff168152602001915050600060405180830381600087803b15801561061f57600080fd5b505af1158015610633573d6000803e3d6000fd5b5050505050565b6106426109aa565b730ee37514644683f7eb9745a5726c722deba77e526000806101000a81548173ffffffffffffffffffffffffffffffffffffffff021916908373ffffffffffffffffffffffffffffffffffffffff1602179055507f75e41bc35ff1bf14d81d1d2f649c0084a0f974f9289c803ec9898eeec4c8d0b860008054906101000a900473ffffffffffffffffffffffffffffffffffffffff16604051808273ffffffffffffffffffffffffffffffffffffffff16815260200191505060405180910390a13073ffffffffffffffffffffffffffffffffffffffff1663e19a9dd9826040518263ffffffff1660e01b8152600401808273ffffffffffffffffffffffffffffffffffffffff168152602001915050600060405180830381600087803b15801561076c57600080fd5b505af1158015610780573d6000803e3d6000fd5b5050505050565b61078f6109aa565b6107988161063a565b3073ffffffffffffffffffffffffffffffffffffffff1663f08a0323738aa755cb169991fedc3e306751dcb71964a041c76040518263ffffffff1660e01b8152600401808273ffffffffffffffffffffffffffffffffffffffff168152602001915050600060405180830381600087803b15801561081557600080fd5b505af1158015610829573d6000803e3d6000fd5b5050505050565b6108386109aa565b6108406108d7565b3073ffffffffffffffffffffffffffffffffffffffff1663f08a0323738aa755cb169991fedc3e306751dcb71964a041c76040518263ffffffff1660e01b8152600401808273ffffffffffffffffffffffffffffffffffffffff168152602001915050600060405180830381600087803b1580156108bd57600080fd5b505af11580156108d1573d6000803e3d6000fd5b50505050565b6108df6109aa565b6108e7610a2a565b7388627c8904ecd9df96a572ef32a7ff13b199ed8d6000806101000a81548173ffffffffffffffffffffffffffffffffffffffff021916908373ffffffffffffffffffffffffffffffffffffffff1602179055507f75e41bc35ff1bf14d81d1d2f649c0084a0f974f9289c803ec9898eeec4c8d0b860008054906101000a900473ffffffffffffffffffffffffffffffffffffffff16604051808273ffffffffffffffffffffffffffffffffffffffff16815260200191505060405180910390a1565b6109d360008054906101000a900473ffffffffffffffffffffffffffffffffffffffff16610bab565b610a28576040517f08c379a0000000000000000000000000000000000000000000000000000000008152600401808060200182810382526021815260200180610bf06021913960400191505060405180910390fd5b565b6000610a34610bbe565b9050600073ffffffffffffffffffffffffffffffffffffffff168173ffffffffffffffffffffffffffffffffffffffff1614610ba8578073ffffffffffffffffffffffffffffffffffffffff166301ffc9a77f945b8148000000000000000000000000000000000000000000000000000000006040518263ffffffff1660e01b815260040180827bffffffffffffffffffffffffffffffffffffffffffffffffffffffff1916815260200191505060206040518083038186803b158015610afa57600080fd5b505afa158015610b0e573d6000803e3d6000fd5b505050506040513d6020811015610b2457600080fd5b8101908080519060200190929190505050610ba7576040517f08c379a00000000000000000000000000000000000000000000000000000000081526004018080602001828103825260058152602001807f475333303000000000000000000000000000000000000000000000000000000081525060200191505060405180910390fd5b5b50565b600080823b905060008111915050919050565b6000807f4a204f620c8c5ccdca3fd54d003badd85ba500436a431f0cbda4f558c93c34c860001b905080549150509056fe547279696e6720746f206d69677261746520616e20696e76616c69642053616665a2646970667358221220b00dc4b0bb6275b40db66d53fa8129d4581db28eea56c7b12780aa585ee7525064736f6c634300070600335361666520312e342e312053696e676c65746f6e206973206e6f74206465706c6f7965645361666520312e342e312053696e676c65746f6e20284c3229206973206e6f74206465706c6f7965645361666520312e342e312046616c6c6261636b2048616e646c6572206973206e6f74206465706c6f796564","opcodes":"PUSH1 0x80 PUSH1 0x40 MSTORE CALLVALUE DUP1 ISZERO PUSH2 0x10 JUMPI PUSH1 0x0 DUP1 REVERT JUMPDEST POP PUSH2 0x34 PUSH20 0x88627C8904ECD9DF96A572EF32A7FF13B199ED8D PUSH2 0x17E PUSH1 0x20 SHL PUSH1 0x20 SHR JUMP JUMPDEST PUSH2 0x89 JUMPI PUSH1 0x40 MLOAD PUSH32 0x8C379A000000000000000000000000000000000000000000000000000000000 DUP2 MSTORE PUSH1 0x4 ADD DUP1 DUP1 PUSH1 0x20 ADD DUP3 DUP2 SUB DUP3 MSTORE PUSH1 0x24 DUP2 MSTORE PUSH1 0x20 ADD DUP1 PUSH2 0xDE6 PUSH1 0x24 SWAP2 CODECOPY PUSH1 0x40 ADD SWAP2 POP POP PUSH1 0x40 MLOAD DUP1 SWAP2 SUB SWAP1 REVERT JUMPDEST PUSH2 0xAC PUSH20 0xEE37514644683F7EB9745A5726C722DEBA77E52 PUSH2 0x17E PUSH1 0x20 SHL PUSH1 0x20 SHR JUMP JUMPDEST PUSH2 0x101 JUMPI PUSH1 0x40 MLOAD PUSH32 0x8C379A000000000000000000000000000000000000000000000000000000000 DUP2 MSTORE PUSH1 0x4 ADD DUP1 DUP1 PUSH1 0x20 ADD DUP3 DUP2 SUB DUP3 MSTORE PUSH1 0x29 DUP2 MSTORE PUSH1 0x20 ADD DUP1 PUSH2 0xE0A PUSH1 0x29 SWAP2 CODECOPY PUSH1 0x40 ADD SWAP2 POP POP PUSH1 0x40 MLOAD DUP1 SWAP2 SUB SWAP1 REVERT JUMPDEST PUSH2 0x124 PUSH20 0x8AA755CB169991FEDC3E306751DCB71964A041C7 PUSH2 0x17E PUSH1 0x20 SHL PUSH1 0x20 SHR JUMP JUMPDEST PUSH2 0x179 JUMPI PUSH1 0x40 MLOAD PUSH32 0x8C379A000000000000000000000000000000000000000000000000000000000 DUP2 MSTORE PUSH1 0x4 ADD DUP1 DUP1 PUSH1 0x20 ADD DUP3 DUP2 SUB DUP3 MSTORE PUSH1 0x2B DUP2 MSTORE PUSH1 0x20 ADD DUP1 PUSH2 0xE33 PUSH1 0x2B SWAP2 CODECOPY PUSH1 0x40 ADD SWAP2 POP POP PUSH1 0x40 MLOAD DUP1 SWAP2 SUB SWAP1 REVERT JUMPDEST PUSH2 0x191 JUMP JUMPDEST PUSH1 0x0 DUP1 DUP3 EXTCODESIZE SWAP1 POP PUSH1 0x0 DUP2 GT SWAP2 POP POP SWAP2 SWAP1 POP JUMP JUMPDEST PUSH2 0xC46 DUP1 PUSH2 0x1A0 PUSH1 0x0 CODECOPY PUSH1 0x0 RETURN INVALID PUSH1 0x80 PUSH1 0x40 MSTORE CALLVALUE DUP1 ISZERO PUSH2 0x10 JUMPI PUSH1 0x0 DUP1 REVERT JUMPDEST POP PUSH1 0x4 CALLDATASIZE LT PUSH2 0xA9 JUMPI PUSH1 0x0 CALLDATALOAD PUSH1 0xE0 SHR DUP1 PUSH4 0xA5E2EEDC GT PUSH2 0x71 JUMPI DUP1 PUSH4 0xA5E2EEDC EQ PUSH2 0x16E JUMPI DUP1 PUSH4 0xB7A446F3 EQ PUSH2 0x1A2 JUMPI DUP1 PUSH4 0xDC162932 EQ PUSH2 0x1E6 JUMPI DUP1 PUSH4 0xEC7B48C9 EQ PUSH2 0x22A JUMPI DUP1 PUSH4 0xED007FC6 EQ PUSH2 0x26E JUMPI DUP1 PUSH4 0xF6682AB0 EQ PUSH2 0x278 JUMPI PUSH2 0xA9 JUMP JUMPDEST DUP1 PUSH4 0x7F464A4 EQ PUSH2 0xAE JUMPI DUP1 PUSH4 0xDB9CEAB EQ PUSH2 0xB8 JUMPI DUP1 PUSH4 0x1E98BDC9 EQ PUSH2 0xEC JUMPI DUP1 PUSH4 0x68CB3D94 EQ PUSH2 0x120 JUMPI DUP1 PUSH4 0x807B56D7 EQ PUSH2 0x12A JUMPI JUMPDEST PUSH1 0x0 DUP1 REVERT JUMPDEST PUSH2 0xB6 PUSH2 0x282 JUMP JUMPDEST STOP JUMPDEST PUSH2 0xC0 PUSH2 0x355 JUMP JUMPDEST PUSH1 0x40 MLOAD DUP1 DUP3 PUSH20 0xFFFFFFFFFFFFFFFFFFFFFFFFFFFFFFFFFFFFFFFF AND DUP2 MSTORE PUSH1 0x20 ADD SWAP2 POP POP PUSH1 0x40 MLOAD DUP1 SWAP2 SUB SWAP1 RETURN JUMPDEST PUSH2 0xF4 PUSH2 0x36D JUMP JUMPDEST PUSH1 0x40 MLOAD DUP1 DUP3 PUSH20 0xFFFFFFFFFFFFFFFFFFFFFFFFFFFFFFFFFFFFFFFF AND DUP2 MSTORE PUSH1 0x20 ADD SWAP2 POP POP PUSH1 0x40 MLOAD DUP1 SWAP2 SUB SWAP1 RETURN JUMPDEST PUSH2 0x128 PUSH2 0x385 JUMP JUMPDEST STOP JUMPDEST PUSH2 0x16C PUSH1 0x4 DUP1 CALLDATASIZE SUB PUSH1 0x20 DUP2 LT ISZERO PUSH2 0x140 JUMPI PUSH1 0x0 DUP1 REVERT JUMPDEST DUP2 ADD SWAP1 DUP1 DUP1 CALLDATALOAD PUSH20 0xFFFFFFFFFFFFFFFFFFFFFFFFFFFFFFFFFFFFFFFF AND SWAP1 PUSH1 0x20 ADD SWAP1 SWAP3 SWAP2 SWAP1 POP POP POP PUSH2 0x42C JUMP JUMPDEST STOP JUMPDEST PUSH2 0x176 PUSH2 0x4D5 JUMP JUMPDEST PUSH1 0x40 MLOAD DUP1 DUP3 PUSH20 0xFFFFFFFFFFFFFFFFFFFFFFFFFFFFFFFFFFFFFFFF AND DUP2 MSTORE PUSH1 0x20 ADD SWAP2 POP POP PUSH1 0x40 MLOAD DUP1 SWAP2 SUB SWAP1 RETURN JUMPDEST PUSH2 0x1E4 PUSH1 0x4 DUP1 CALLDATASIZE SUB PUSH1 0x20 DUP2 LT ISZERO PUSH2 0x1B8 JUMPI PUSH1 0x0 DUP1 REVERT JUMPDEST DUP2 ADD SWAP1 DUP1 DUP1 CALLDATALOAD PUSH20 0xFFFFFFFFFFFFFFFFFFFFFFFFFFFFFFFFFFFFFFFF AND SWAP1 PUSH1 0x20 ADD SWAP1 SWAP3 SWAP2 SWAP1 POP POP POP PUSH2 0x4ED JUMP JUMPDEST STOP JUMPDEST PUSH2 0x228 PUSH1 0x4 DUP1 CALLDATASIZE SUB PUSH1 0x20 DUP2 LT ISZERO PUSH2 0x1FC JUMPI PUSH1 0x0 DUP1 REVERT JUMPDEST DUP2 ADD SWAP1 DUP1 DUP1 CALLDATALOAD PUSH20 0xFFFFFFFFFFFFFFFFFFFFFFFFFFFFFFFFFFFFFFFF AND SWAP1 PUSH1 0x20 ADD SWAP1 SWAP3 SWAP2 SWAP1 POP POP POP PUSH2 0x63A JUMP JUMPDEST STOP JUMPDEST PUSH2 0x26C PUSH1 0x4 DUP1 CALLDATASIZE SUB PUSH1 0x20 DUP2 LT ISZERO PUSH2 0x240 JUMPI PUSH1 0x0 DUP1 REVERT JUMPDEST DUP2 ADD SWAP1 DUP1 DUP1 CALLDATALOAD PUSH20 0xFFFFFFFFFFFFFFFFFFFFFFFFFFFFFFFFFFFFFFFF AND SWAP1 PUSH1 0x20 ADD SWAP1 SWAP3 SWAP2 SWAP1 POP POP POP PUSH2 0x787 JUMP JUMPDEST STOP JUMPDEST PUSH2 0x276 PUSH2 0x830 JUMP JUMPDEST STOP JUMPDEST PUSH2 0x280 PUSH2 0x8D7 JUMP JUMPDEST STOP JUMPDEST PUSH2 0x28A PUSH2 0x9AA JUMP JUMPDEST PUSH2 0x292 PUSH2 0xA2A JUMP JUMPDEST PUSH20 0xEE37514644683F7EB9745A5726C722DEBA77E52 PUSH1 0x0 DUP1 PUSH2 0x100 EXP DUP2 SLOAD DUP2 PUSH20 0xFFFFFFFFFFFFFFFFFFFFFFFFFFFFFFFFFFFFFFFF MUL NOT AND SWAP1 DUP4 PUSH20 0xFFFFFFFFFFFFFFFFFFFFFFFFFFFFFFFFFFFFFFFF AND MUL OR SWAP1 SSTORE POP PUSH32 0x75E41BC35FF1BF14D81D1D2F649C0084A0F974F9289C803EC9898EEEC4C8D0B8 PUSH1 0x0 DUP1 SLOAD SWAP1 PUSH2 0x100 EXP SWAP1 DIV PUSH20 0xFFFFFFFFFFFFFFFFFFFFFFFFFFFFFFFFFFFFFFFF AND PUSH1 0x40 MLOAD DUP1 DUP3 PUSH20 0xFFFFFFFFFFFFFFFFFFFFFFFFFFFFFFFFFFFFFFFF AND DUP2 MSTORE PUSH1 0x20 ADD SWAP2 POP POP PUSH1 0x40 MLOAD DUP1 SWAP2 SUB SWAP1 LOG1 JUMP JUMPDEST PUSH20 0xEE37514644683F7EB9745A5726C722DEBA77E52 DUP2 JUMP JUMPDEST PUSH20 0x8AA755CB169991FEDC3E306751DCB71964A041C7 DUP2 JUMP JUMPDEST PUSH2 0x38D PUSH2 0x9AA JUMP JUMPDEST PUSH2 0x395 PUSH2 0x282 JUMP JUMPDEST ADDRESS PUSH20 0xFFFFFFFFFFFFFFFFFFFFFFFFFFFFFFFFFFFFFFFF AND PUSH4 0xF08A0323 PUSH20 0x8AA755CB169991FEDC3E306751DCB71964A041C7 PUSH1 0x40 MLOAD DUP3 PUSH4 0xFFFFFFFF AND PUSH1 0xE0 SHL DUP2 MSTORE PUSH1 0x4 ADD DUP1 DUP3 PUSH20 0xFFFFFFFFFFFFFFFFFFFFFFFFFFFFFFFFFFFFFFFF AND DUP2 MSTORE PUSH1 0x20 ADD SWAP2 POP POP PUSH1 0x0 PUSH1 0x40 MLOAD DUP1 DUP4 SUB DUP2 PUSH1 0x0 DUP8 DUP1 EXTCODESIZE ISZERO DUP1 ISZERO PUSH2 0x412 JUMPI PUSH1 0x0 DUP1 REVERT JUMPDEST POP GAS CALL ISZERO DUP1 ISZERO PUSH2 0x426 JUMPI RETURNDATASIZE PUSH1 0x0 DUP1 RETURNDATACOPY RETURNDATASIZE PUSH1 0x0 REVERT JUMPDEST POP POP POP POP JUMP JUMPDEST PUSH2 0x434 PUSH2 0x9AA JUMP JUMPDEST PUSH2 0x43D DUP2 PUSH2 0x4ED JUMP JUMPDEST ADDRESS PUSH20 0xFFFFFFFFFFFFFFFFFFFFFFFFFFFFFFFFFFFFFFFF AND PUSH4 0xF08A0323 PUSH20 0x8AA755CB169991FEDC3E306751DCB71964A041C7 PUSH1 0x40 MLOAD DUP3 PUSH4 0xFFFFFFFF AND PUSH1 0xE0 SHL DUP2 MSTORE PUSH1 0x4 ADD DUP1 DUP3 PUSH20 0xFFFFFFFFFFFFFFFFFFFFFFFFFFFFFFFFFFFFFFFF AND DUP2 MSTORE PUSH1 0x20 ADD SWAP2 POP POP PUSH1 0x0 PUSH1 0x40 MLOAD DUP1 DUP4 SUB DUP2 PUSH1 0x0 DUP8 DUP1 EXTCODESIZE ISZERO DUP1 ISZERO PUSH2 0x4BA JUMPI PUSH1 0x0 DUP1 REVERT JUMPDEST POP GAS CALL ISZERO DUP1 ISZERO PUSH2 0x4CE JUMPI RETURNDATASIZE PUSH1 0x0 DUP1 RETURNDATACOPY RETURNDATASIZE PUSH1 0x0 REVERT JUMPDEST POP POP POP POP POP JUMP JUMPDEST PUSH20 0x88627C8904ECD9DF96A572EF32A7FF13B199ED8D DUP2 JUMP JUMPDEST PUSH2 0x4F5 PUSH2 0x9AA JUMP JUMPDEST PUSH20 0x88627C8904ECD9DF96A572EF32A7FF13B199ED8D PUSH1 0x0 DUP1 PUSH2 0x100 EXP DUP2 SLOAD DUP2 PUSH20 0xFFFFFFFFFFFFFFFFFFFFFFFFFFFFFFFFFFFFFFFF MUL NOT AND SWAP1 DUP4 PUSH20 0xFFFFFFFFFFFFFFFFFFFFFFFFFFFFFFFFFFFFFFFF AND MUL OR SWAP1 SSTORE POP PUSH32 0x75E41BC35FF1BF14D81D1D2F649C0084A0F974F9289C803EC9898EEEC4C8D0B8 PUSH1 0x0 DUP1 SLOAD SWAP1 PUSH2 0x100 EXP SWAP1 DIV PUSH20 0xFFFFFFFFFFFFFFFFFFFFFFFFFFFFFFFFFFFFFFFF AND PUSH1 0x40 MLOAD DUP1 DUP3 PUSH20 0xFFFFFFFFFFFFFFFFFFFFFFFFFFFFFFFFFFFFFFFF AND DUP2 MSTORE PUSH1 0x20 ADD SWAP2 POP POP PUSH1 0x40 MLOAD DUP1 SWAP2 SUB SWAP1 LOG1 ADDRESS PUSH20 0xFFFFFFFFFFFFFFFFFFFFFFFFFFFFFFFFFFFFFFFF AND PUSH4 0xE19A9DD9 DUP3 PUSH1 0x40 MLOAD DUP3 PUSH4 0xFFFFFFFF AND PUSH1 0xE0 SHL DUP2 MSTORE PUSH1 0x4 ADD DUP1 DUP3 PUSH20 0xFFFFFFFFFFFFFFFFFFFFFFFFFFFFFFFFFFFFFFFF AND DUP2 MSTORE PUSH1 0x20 ADD SWAP2 POP POP PUSH1 0x0 PUSH1 0x40 MLOAD DUP1 DUP4 SUB DUP2 PUSH1 0x0 DUP8 DUP1 EXTCODESIZE ISZERO DUP1 ISZERO PUSH2 0x61F JUMPI PUSH1 0x0 DUP1 REVERT JUMPDEST POP GAS CALL ISZERO DUP1 ISZERO PUSH2 0x633 JUMPI RETURNDATASIZE PUSH1 0x0 DUP1 RETURNDATACOPY RETURNDATASIZE PUSH1 0x0 REVERT JUMPDEST POP POP POP POP POP JUMP JUMPDEST PUSH2 0x642 PUSH2 0x9AA JUMP JUMPDEST PUSH20 0xEE37514644683F7EB9745A5726C722DEBA77E52 PUSH1 0x0 DUP1 PUSH2 0x100 EXP DUP2 SLOAD DUP2 PUSH20 0xFFFFFFFFFFFFFFFFFFFFFFFFFFFFFFFFFFFFFFFF MUL NOT AND SWAP1 DUP4 PUSH20 0xFFFFFFFFFFFFFFFFFFFFFFFFFFFFFFFFFFFFFFFF AND MUL OR SWAP1 SSTORE POP PUSH32 0x75E41BC35FF1BF14D81D1D2F649C0084A0F974F9289C803EC9898EEEC4C8D0B8 PUSH1 0x0 DUP1 SLOAD SWAP1 PUSH2 0x100 EXP SWAP1 DIV PUSH20 0xFFFFFFFFFFFFFFFFFFFFFFFFFFFFFFFFFFFFFFFF AND PUSH1 0x40 MLOAD DUP1 DUP3 PUSH20 0xFFFFFFFFFFFFFFFFFFFFFFFFFFFFFFFFFFFFFFFF AND DUP2 MSTORE PUSH1 0x20 ADD SWAP2 POP POP PUSH1 0x40 MLOAD DUP1 SWAP2 SUB SWAP1 LOG1 ADDRESS PUSH20 0xFFFFFFFFFFFFFFFFFFFFFFFFFFFFFFFFFFFFFFFF AND PUSH4 0xE19A9DD9 DUP3 PUSH1 0x40 MLOAD DUP3 PUSH4 0xFFFFFFFF AND PUSH1 0xE0 SHL DUP2 MSTORE PUSH1 0x4 ADD DUP1 DUP3 PUSH20 0xFFFFFFFFFFFFFFFFFFFFFFFFFFFFFFFFFFFFFFFF AND DUP2 MSTORE PUSH1 0x20 ADD SWAP2 POP POP PUSH1 0x0 PUSH1 0x40 MLOAD DUP1 DUP4 SUB DUP2 PUSH1 0x0 DUP8 DUP1 EXTCODESIZE ISZERO DUP1 ISZERO PUSH2 0x76C JUMPI PUSH1 0x0 DUP1 REVERT JUMPDEST POP GAS CALL ISZERO DUP1 ISZERO PUSH2 0x780 JUMPI RETURNDATASIZE PUSH1 0x0 DUP1 RETURNDATACOPY RETURNDATASIZE PUSH1 0x0 REVERT JUMPDEST POP POP POP POP POP JUMP JUMPDEST PUSH2 0x78F PUSH2 0x9AA JUMP JUMPDEST PUSH2 0x798 DUP2 PUSH2 0x63A JUMP JUMPDEST ADDRESS PUSH20 0xFFFFFFFFFFFFFFFFFFFFFFFFFFFFFFFFFFFFFFFF AND PUSH4 0xF08A0323 PUSH20 0x8AA755CB169991FEDC3E306751DCB71964A041C7 PUSH1 0x40 MLOAD DUP3 PUSH4 0xFFFFFFFF AND PUSH1 0xE0 SHL DUP2 MSTORE PUSH1 0x4 ADD DUP1 DUP3 PUSH20 0xFFFFFFFFFFFFFFFFFFFFFFFFFFFFFFFFFFFFFFFF AND DUP2 MSTORE PUSH1 0x20 ADD SWAP2 POP POP PUSH1 0x0 PUSH1 0x40 MLOAD DUP1 DUP4 SUB DUP2 PUSH1 0x0 DUP8 DUP1 EXTCODESIZE ISZERO DUP1 ISZERO PUSH2 0x815 JUMPI PUSH1 0x0 DUP1 REVERT JUMPDEST POP GAS CALL ISZERO DUP1 ISZERO PUSH2 0x829 JUMPI RETURNDATASIZE PUSH1 0x0 DUP1 RETURNDATACOPY RETURNDATASIZE PUSH1 0x0 REVERT JUMPDEST POP POP POP POP POP JUMP JUMPDEST PUSH2 0x838 PUSH2 0x9AA JUMP JUMPDEST PUSH2 0x840 PUSH2 0x8D7 JUMP JUMPDEST ADDRESS PUSH20 0xFFFFFFFFFFFFFFFFFFFFFFFFFFFFFFFFFFFFFFFF AND PUSH4 0xF08A0323 PUSH20 0x8AA755CB169991FEDC3E306751DCB71964A041C7 PUSH1 0x40 MLOAD DUP3 PUSH4 0xFFFFFFFF AND PUSH1 0xE0 SHL DUP2 MSTORE PUSH1 0x4 ADD DUP1 DUP3 PUSH20 0xFFFFFFFFFFFFFFFFFFFFFFFFFFFFFFFFFFFFFFFF AND DUP2 MSTORE PUSH1 0x20 ADD SWAP2 POP POP PUSH1 0x0 PUSH1 0x40 MLOAD DUP1 DUP4 SUB DUP2 PUSH1 0x0 DUP8 DUP1 EXTCODESIZE ISZERO DUP1 ISZERO PUSH2 0x8BD JUMPI PUSH1 0x0 DUP1 REVERT JUMPDEST POP GAS CALL ISZERO DUP1 ISZERO PUSH2 0x8D1 JUMPI RETURNDATASIZE PUSH1 0x0 DUP1 RETURNDATACOPY RETURNDATASIZE PUSH1 0x0 REVERT JUMPDEST POP POP POP POP JUMP JUMPDEST PUSH2 0x8DF PUSH2 0x9AA JUMP JUMPDEST PUSH2 0x8E7 PUSH2 0xA2A JUMP JUMPDEST PUSH20 0x88627C8904ECD9DF96A572EF32A7FF13B199ED8D PUSH1 0x0 DUP1 PUSH2 0x100 EXP DUP2 SLOAD DUP2 PUSH20 0xFFFFFFFFFFFFFFFFFFFFFFFFFFFFFFFFFFFFFFFF MUL NOT AND SWAP1 DUP4 PUSH20 0xFFFFFFFFFFFFFFFFFFFFFFFFFFFFFFFFFFFFFFFF AND MUL OR SWAP1 SSTORE POP PUSH32 0x75E41BC35FF1BF14D81D1D2F649C0084A0F974F9289C803EC9898EEEC4C8D0B8 PUSH1 0x0 DUP1 SLOAD SWAP1 PUSH2 0x100 EXP SWAP1 DIV PUSH20 0xFFFFFFFFFFFFFFFFFFFFFFFFFFFFFFFFFFFFFFFF AND PUSH1 0x40 MLOAD DUP1 DUP3 PUSH20 0xFFFFFFFFFFFFFFFFFFFFFFFFFFFFFFFFFFFFFFFF AND DUP2 MSTORE PUSH1 0x20 ADD SWAP2 POP POP PUSH1 0x40 MLOAD DUP1 SWAP2 SUB SWAP1 LOG1 JUMP JUMPDEST PUSH2 0x9D3 PUSH1 0x0 DUP1 SLOAD SWAP1 PUSH2 0x100 EXP SWAP1 DIV PUSH20 0xFFFFFFFFFFFFFFFFFFFFFFFFFFFFFFFFFFFFFFFF AND PUSH2 0xBAB JUMP JUMPDEST PUSH2 0xA28 JUMPI PUSH1 0x40 MLOAD PUSH32 0x8C379A000000000000000000000000000000000000000000000000000000000 DUP2 MSTORE PUSH1 0x4 ADD DUP1 DUP1 PUSH1 0x20 ADD DUP3 DUP2 SUB DUP3 MSTORE PUSH1 0x21 DUP2 MSTORE PUSH1 0x20 ADD DUP1 PUSH2 0xBF0 PUSH1 0x21 SWAP2 CODECOPY PUSH1 0x40 ADD SWAP2 POP POP PUSH1 0x40 MLOAD DUP1 SWAP2 SUB SWAP1 REVERT JUMPDEST JUMP JUMPDEST PUSH1 0x0 PUSH2 0xA34 PUSH2 0xBBE JUMP JUMPDEST SWAP1 POP PUSH1 0x0 PUSH20 0xFFFFFFFFFFFFFFFFFFFFFFFFFFFFFFFFFFFFFFFF AND DUP2 PUSH20 0xFFFFFFFFFFFFFFFFFFFFFFFFFFFFFFFFFFFFFFFF AND EQ PUSH2 0xBA8 JUMPI DUP1 PUSH20 0xFFFFFFFFFFFFFFFFFFFFFFFFFFFFFFFFFFFFFFFF AND PUSH4 0x1FFC9A7 PUSH32 0x945B814800000000000000000000000000000000000000000000000000000000 PUSH1 0x40 MLOAD DUP3 PUSH4 0xFFFFFFFF AND PUSH1 0xE0 SHL DUP2 MSTORE PUSH1 0x4 ADD DUP1 DUP3 PUSH28 0xFFFFFFFFFFFFFFFFFFFFFFFFFFFFFFFFFFFFFFFFFFFFFFFFFFFFFFFF NOT AND DUP2 MSTORE PUSH1 0x20 ADD SWAP2 POP POP PUSH1 0x20 PUSH1 0x40 MLOAD DUP1 DUP4 SUB DUP2 DUP7 DUP1 EXTCODESIZE ISZERO DUP1 ISZERO PUSH2 0xAFA JUMPI PUSH1 0x0 DUP1 REVERT JUMPDEST POP GAS STATICCALL ISZERO DUP1 ISZERO PUSH2 0xB0E JUMPI RETURNDATASIZE PUSH1 0x0 DUP1 RETURNDATACOPY RETURNDATASIZE PUSH1 0x0 REVERT JUMPDEST POP POP POP POP PUSH1 0x40 MLOAD RETURNDATASIZE PUSH1 0x20 DUP2 LT ISZERO PUSH2 0xB24 JUMPI PUSH1 0x0 DUP1 REVERT JUMPDEST DUP2 ADD SWAP1 DUP1 DUP1 MLOAD SWAP1 PUSH1 0x20 ADD SWAP1 SWAP3 SWAP2 SWAP1 POP POP POP PUSH2 0xBA7 JUMPI PUSH1 0x40 MLOAD PUSH32 0x8C379A000000000000000000000000000000000000000000000000000000000 DUP2 MSTORE PUSH1 0x4 ADD DUP1 DUP1 PUSH1 0x20 ADD DUP3 DUP2 SUB DUP3 MSTORE PUSH1 0x5 DUP2 MSTORE PUSH1 0x20 ADD DUP1 PUSH32 0x4753333030000000000000000000000000000000000000000000000000000000 DUP2 MSTORE POP PUSH1 0x20 ADD SWAP2 POP POP PUSH1 0x40 MLOAD DUP1 SWAP2 SUB SWAP1 REVERT JUMPDEST JUMPDEST POP JUMP JUMPDEST PUSH1 0x0 DUP1 DUP3 EXTCODESIZE SWAP1 POP PUSH1 0x0 DUP2 GT SWAP2 POP POP SWAP2 SWAP1 POP JUMP JUMPDEST PUSH1 0x0 DUP1 PUSH32 0x4A204F620C8C5CCDCA3FD54D003BADD85BA500436A431F0CBDA4F558C93C34C8 PUSH1 0x0 SHL SWAP1 POP DUP1 SLOAD SWAP2 POP POP SWAP1 JUMP INVALID SLOAD PUSH19 0x79696E6720746F206D69677261746520616E20 PUSH10 0x6E76616C696420536166 PUSH6 0xA26469706673 PC 0x22 SLT KECCAK256 0xB0 0xD 0xC4 0xB0 0xBB PUSH3 0x75B40D 0xB6 PUSH14 0x53FA8129D4581DB28EEA56C7B127 DUP1 0xAA PC 0x5E 0xE7 MSTORE POP PUSH5 0x736F6C6343 STOP SMOD MOD STOP CALLER MSTORE8 PUSH2 0x6665 KECCAK256 BALANCE 0x2E CALLVALUE 0x2E BALANCE KECCAK256 MSTORE8 PUSH10 0x6E676C65746F6E206973 KECCAK256 PUSH15 0x6F74206465706C6F79656453616665 KECCAK256 BALANCE 0x2E CALLVALUE 0x2E BALANCE KECCAK256 MSTORE8 PUSH10 0x6E676C65746F6E20284C ORIGIN 0x29 KECCAK256 PUSH10 0x73206E6F74206465706C PUSH16 0x7965645361666520312E342E31204661 PUSH13 0x6C6261636B2048616E646C6572 KECCAK256 PUSH10 0x73206E6F74206465706C PUSH16 0x79656400000000000000000000000000 "},"gasEstimates":{"creation":{"codeDepositCost":"628400","executionCost":"infinite","totalCost":"infinite"},"external":{"SAFE_150_FALLBACK_HANDLER()":"256","SAFE_150_SINGLETON()":"211","SAFE_150_SINGLETON_L2()":"234","migrateL2Singleton()":"infinite","migrateL2WithFallbackHandler()":"infinite","migrateL2WithSetGuard(address)":"infinite","migrateL2WithSetGuardAndFallbackHandler(address)":"infinite","migrateSingleton()":"infinite","migrateWithFallbackHandler()":"infinite","migrateWithSetGuard(address)":"infinite","migrateWithSetGuardAndFallbackHandler(address)":"infinite"},"internal":{"checkCurrentSingleton()":"infinite","checkGuard()":"infinite","getGuard()":"842","isContract(address)":"747"}},"methodIdentifiers":{"SAFE_150_FALLBACK_HANDLER()":"1e98bdc9","SAFE_150_SINGLETON()":"a5e2eedc","SAFE_150_SINGLETON_L2()":"0db9ceab","migrateL2Singleton()":"07f464a4","migrateL2WithFallbackHandler()":"68cb3d94","migrateL2WithSetGuard(address)":"dc162932","migrateL2WithSetGuardAndFallbackHandler(address)":"ec7b48c9","migrateSingleton()":"f6682ab0","migrateWithFallbackHandler()":"ed007fc6","migrateWithSetGuard(address)":"b7a446f3","migrateWithSetGuardAndFallbackHandler(address)":"807b56d7"}},"storageLayout":{"storage":[{"astId":4784,"contract":"contracts/libraries/Safe150Migration.sol:Safe150Migration","label":"singleton","offset":0,"slot":"0","type":"t_address"},{"astId":4788,"contract":"contracts/libraries/Safe150Migration.sol:Safe150Migration","label":"modules","offset":0,"slot":"1","type":"t_mapping(t_address,t_address)"},{"astId":4792,"contract":"contracts/libraries/Safe150Migration.sol:Safe150Migration","label":"owners","offset":0,"slot":"2","type":"t_mapping(t_address,t_address)"},{"astId":4794,"contract":"contracts/libraries/Safe150Migration.sol:Safe150Migration","label":"ownerCount","offset":0,"slot":"3","type":"t_uint256"},{"astId":4796,"contract":"contracts/libraries/Safe150Migration.sol:Safe150Migration","label":"threshold","offset":0,"slot":"4","type":"t_uint256"},{"astId":4798,"contract":"contracts/libraries/Safe150Migration.sol:Safe150Migration","label":"nonce","offset":0,"slot":"5","type":"t_uint256"},{"astId":4800,"contract":"contracts/libraries/Safe150Migration.sol:Safe150Migration","label":"_deprecatedDomainSeparator","offset":0,"slot":"6","type":"t_bytes32"},{"astId":4804,"contract":"contracts/libraries/Safe150Migration.sol:Safe150Migration","label":"signedMessages","offset":0,"slot":"7","type":"t_mapping(t_bytes32,t_uint256)"},{"astId":4810,"contract":"contracts/libraries/Safe150Migration.sol:Safe150Migration","label":"approvedHashes","offset":0,"slot":"8","type":"t_mapping(t_address,t_mapping(t_bytes32,t_uint256))"}],"types":{"t_address":{"encoding":"inplace","label":"address","numberOfBytes":"20"},"t_bytes32":{"encoding":"inplace","label":"bytes32","numberOfBytes":"32"},"t_mapping(t_address,t_address)":{"encoding":"mapping","key":"t_address","label":"mapping(address => address)","numberOfBytes":"32","value":"t_address"},"t_mapping(t_address,t_mapping(t_bytes32,t_uint256))":{"encoding":"mapping","key":"t_address","label":"mapping(address => mapping(bytes32 => uint256))","numberOfBytes":"32","value":"t_mapping(t_bytes32,t_uint256)"},"t_mapping(t_bytes32,t_uint256)":{"encoding":"mapping","key":"t_bytes32","label":"mapping(bytes32 => uint256)","numberOfBytes":"32","value":"t_uint256"},"t_uint256":{"encoding":"inplace","label":"uint256","numberOfBytes":"32"}}},"userdoc":{"events":{"ChangedMasterCopy(address)":{"notice":"Event indicating a change of master copy address."}},"kind":"user","methods":{"constructor":{"notice":"Constructor"},"migrateL2Singleton()":{"notice":"Migrate to Safe 1.5.0 Singleton (L2) at `SAFE_150_SINGLETON_L2`"},"migrateL2WithFallbackHandler()":{"notice":"Migrate to Safe 1.5.0 Singleton (L2) and set the fallback handler to Safe 1.5.0 Compatibility Fallback Handler."},"migrateL2WithSetGuard(address)":{"notice":"Migrate to Safe 1.5.0 Singleton (L2) and set the guard to the specified address."},"migrateL2WithSetGuardAndFallbackHandler(address)":{"notice":"Migrate to Safe 1.5.0 Singleton (L2), set the guard to the specified address, and set the fallback handler to Safe 1.5.0 Compatibility Fallback Handler."},"migrateSingleton()":{"notice":"Migrate to Safe 1.5.0 Singleton (L1) at `SAFE_150_SINGLETON`"},"migrateWithFallbackHandler()":{"notice":"Migrate and set the fallback handler to Safe 1.5.0 Compatibility Fallback Handler."},"migrateWithSetGuard(address)":{"notice":"Migrate and set the guard to the specified address."},"migrateWithSetGuardAndFallbackHandler(address)":{"notice":"Migrate, set the guard to the specified address, and set the fallback handler to Safe 1.5.0 Compatibility Fallback Handler."}},"notice":"This contract facilitates the migration of a Safe contract from version 1.3.0/1.4.1 to 1.5.0.","version":1}}}}